{
  "_format": "hh-sol-artifact-1",
  "contractName": "Proxy",
  "sourceName": "contracts/Proxy.sol",
  "abi": [
    {
      "anonymous": false,
      "inputs": [
        {
          "indexed": false,
          "internalType": "bytes4",
          "name": "sig",
          "type": "bytes4"
        }
      ],
      "name": "FallbackCalled",
      "type": "event"
    },
    {
      "inputs": [
        {
          "internalType": "string",
          "name": "name",
          "type": "string"
        },
        {
          "internalType": "uint256",
          "name": "candidateId",
          "type": "uint256"
        },
        {
          "internalType": "string",
          "name": "party",
          "type": "string"
        }
      ],
      "name": "addCandidates",
      "outputs": [],
      "stateMutability": "payable",
      "type": "function"
    },
    {
      "inputs": [
        {
          "internalType": "address payable",
          "name": "_to",
          "type": "address"
        }
      ],
      "name": "callTransfer",
      "outputs": [],
      "stateMutability": "payable",
      "type": "function"
    },
    {
      "inputs": [],
      "name": "getListCandidates",
      "outputs": [
        {
          "internalType": "string[]",
          "name": "candidateNames",
          "type": "string[]"
        },
        {
          "internalType": "uint256[]",
          "name": "ids",
          "type": "uint256[]"
        },
        {
          "internalType": "string[]",
          "name": "party",
          "type": "string[]"
        },
        {
          "internalType": "uint256[]",
          "name": "voteCounts",
          "type": "uint256[]"
        }
      ],
      "stateMutability": "view",
      "type": "function"
    },
    {
      "inputs": [
        {
          "internalType": "address",
          "name": "voter",
          "type": "address"
        }
      ],
      "name": "getVote",
      "outputs": [
        {
          "internalType": "bool",
          "name": "hasVote",
          "type": "bool"
        }
      ],
      "stateMutability": "view",
      "type": "function"
    },
    {
      "inputs": [],
      "name": "getWinner",
      "outputs": [
        {
          "internalType": "string",
          "name": "winnerName",
          "type": "string"
        },
        {
          "internalType": "uint256",
          "name": "winnerVoteCount",
          "type": "uint256"
        }
      ],
      "stateMutability": "view",
      "type": "function"
    },
    {
      "inputs": [
        {
          "internalType": "address",
          "name": "_transferAddress",
          "type": "address"
        },
        {
          "internalType": "address",
          "name": "_voteAddress",
          "type": "address"
        }
      ],
      "name": "starting",
      "outputs": [],
      "stateMutability": "nonpayable",
      "type": "function"
    },
    {
      "inputs": [
        {
          "internalType": "string",
          "name": "_selector",
          "type": "string"
        },
        {
          "internalType": "address",
          "name": "_newImplementation",
          "type": "address"
        }
      ],
      "name": "updateProxy",
      "outputs": [],
      "stateMutability": "nonpayable",
      "type": "function"
    },
    {
      "inputs": [
        {
          "internalType": "uint256",
          "name": "candidateId",
          "type": "uint256"
        },
        {
          "internalType": "address",
          "name": "voter",
          "type": "address"
        }
      ],
      "name": "vote",
      "outputs": [],
      "stateMutability": "payable",
      "type": "function"
    }
  ],
  "bytecode": "0x608060405234801561001057600080fd5b50610d95806100206000396000f3fe60806040526004361061007b5760003560e01c80638d337b811161004e5780638d337b81146102135780638e7ea5b214610243578063dac8fa2a14610266578063eec990f21461027957600080fd5b806302d947ef146100805780634b9ab850146100955780634d6f9dfb146100b5578063690ff8a1146101e5575b600080fd5b61009361008e366004610aad565b61028c565b005b3480156100a157600080fd5b506100936100b03660046109b9565b6102ee565b3480156100c157600080fd5b506100936100d03660046108b9565b600180546001600160a01b039384166001600160a01b0319918216811790925560028054939094169281168317909355600060208190527f65d4675a546b3c73e6edb83d0c4efe6c0303339f8ba8dfbefcb0e53a4f11bf0a805485169092179091557f0cc6f6e639e668ee68cd4d7dc107c2f84cafaa016e37174dfbcf2ecd7cfc57dd80548416831790557f6d5961e9929ddb6eca32ac56e5f06e2417f97f632fdc6de1fe0825693162f88580548416831790557f958ea126b57d6cbb118503fe0dfe7ee3227ddd0b445ddd9756b706d623d6aa7e80548416831790557f8f02308d80ef99d8a06474d037a9fde0a96242681145e5a30da848c0aeccebe7805490931690911790915563690ff8a160e01b9052565b3480156101f157600080fd5b506101fa610351565b60405161020a9493929190610bd8565b60405180910390f35b34801561021f57600080fd5b5061023361022e366004610896565b6103ef565b604051901515815260200161020a565b34801561024f57600080fd5b50610258610473565b60405161020a929190610c30565b610093610274366004610a43565b610509565b610093610287366004610896565b610547565b6102ea7f02d947ef7e1bcf8fb01214590fc292969ae4d5e7f45d7813e715cc8b7f8f3eb583836040516020016102d59291909182526001600160a01b0316602082015260400190565b604051602081830303815290604052346105de565b5050565b6000826040516020016103019190610bbc565b60408051808303601f1901815291815281516020928301206001600160e01b031916600090815291829052902080546001600160a01b0319166001600160a01b0393909316929092179091555050565b606080606080600260009054906101000a90046001600160a01b03166001600160a01b031663690ff8a16040518163ffffffff1660e01b815260040160006040518083038186803b1580156103a557600080fd5b505afa1580156103b9573d6000803e3d6000fd5b505050506040513d6000823e601f3d908101601f191682016040526103e191908101906108f1565b935093509350935090919293565b600254604051638d337b8160e01b81526001600160a01b0383811660048301526000921690638d337b819060240160206040518083038186803b15801561043557600080fd5b505afa158015610449573d6000803e3d6000fd5b505050506040513d601f19601f8201168201806040525081019061046d9190610999565b92915050565b60606000600260009054906101000a90046001600160a01b03166001600160a01b0316638e7ea5b26040518163ffffffff1660e01b815260040160006040518083038186803b1580156104c557600080fd5b505afa1580156104d9573d6000803e3d6000fd5b505050506040513d6000823e601f3d908101601f1916820160405261050191908101906109fe565b915091509091565b6105427fe74f92526f0e4821225878e86d3c7f6ed75a1108786093265c86a02b373c57cb8484846040516020016102d593929190610c52565b505050565b6000341161059c5760405162461bcd60e51b815260206004820152601c60248201527f56616c7565206d7573742062652067726561746572207468616e20300000000060448201526064015b60405180910390fd5b604080516001600160a01b03831660208201526105db917feab06849d7bc153eec39fb39c859939f6e1897fd8b7b2ef9f241bc115f9b57a791016102d5565b50565b6001600160e01b031983166000908152602081905260409020546001600160a01b03168061064e5760405162461bcd60e51b815260206004820152601860248201527f496d706c656d656e746174696f6e206e6f7420666f756e6400000000000000006044820152606401610593565b6000816001600160a01b031683868660405160200161066e929190610b8b565b60408051601f198184030181529082905261068891610bbc565b60006040518083038185875af1925050503d80600081146106c5576040519150601f19603f3d011682016040523d82523d6000602084013e6106ca565b606091505b50509050806107095760405162461bcd60e51b815260206004820152600b60248201526a10d85b1b0819985a5b195960aa1b6044820152606401610593565b5050505050565b600082601f830112610720578081fd5b8151602061073561073083610cb8565b610c87565b80838252828201915082860187848660051b8901011115610754578586fd5b855b8581101561079557815167ffffffffffffffff811115610774578788fd5b6107828a87838c010161084b565b8552509284019290840190600101610756565b5090979650505050505050565b600082601f8301126107b2578081fd5b815160206107c261073083610cb8565b80838252828201915082860187848660051b89010111156107e1578586fd5b855b85811015610795578151845292840192908401906001016107e3565b600082601f83011261080f578081fd5b813561081d61073082610cdc565b818152846020838601011115610831578283fd5b816020850160208301379081016020019190915292915050565b600082601f83011261085b578081fd5b815161086961073082610cdc565b81815284602083860101111561087d578283fd5b61088e826020830160208701610d04565b949350505050565b6000602082840312156108a7578081fd5b81356108b281610d4a565b9392505050565b600080604083850312156108cb578081fd5b82356108d681610d4a565b915060208301356108e681610d4a565b809150509250929050565b60008060008060808587031215610906578182fd5b845167ffffffffffffffff8082111561091d578384fd5b61092988838901610710565b9550602087015191508082111561093e578384fd5b61094a888389016107a2565b9450604087015191508082111561095f578384fd5b61096b88838901610710565b93506060870151915080821115610980578283fd5b5061098d878288016107a2565b91505092959194509250565b6000602082840312156109aa578081fd5b815180151581146108b2578182fd5b600080604083850312156109cb578182fd5b823567ffffffffffffffff8111156109e1578283fd5b6109ed858286016107ff565b92505060208301356108e681610d4a565b60008060408385031215610a10578182fd5b825167ffffffffffffffff811115610a26578283fd5b610a328582860161084b565b925050602083015190509250929050565b600080600060608486031215610a57578283fd5b833567ffffffffffffffff80821115610a6e578485fd5b610a7a878388016107ff565b9450602086013593506040860135915080821115610a96578283fd5b50610aa3868287016107ff565b9150509250925092565b60008060408385031215610abf578182fd5b8235915060208301356108e681610d4a565b600081518084526020808501808196508360051b81019150828601855b85811015610b18578284038952610b06848351610b5f565b98850198935090840190600101610aee565b5091979650505050505050565b6000815180845260208085019450808401835b83811015610b5457815187529582019590820190600101610b38565b509495945050505050565b60008151808452610b77816020860160208601610d04565b601f01601f19169290920160200192915050565b6001600160e01b0319831681528151600090610bae816004850160208701610d04565b919091016004019392505050565b60008251610bce818460208701610d04565b9190910192915050565b608081526000610beb6080830187610ad1565b8281036020840152610bfd8187610b25565b90508281036040840152610c118186610ad1565b90508281036060840152610c258185610b25565b979650505050505050565b604081526000610c436040830185610b5f565b90508260208301529392505050565b606081526000610c656060830186610b5f565b8460208401528281036040840152610c7d8185610b5f565b9695505050505050565b604051601f8201601f1916810167ffffffffffffffff81118282101715610cb057610cb0610d34565b604052919050565b600067ffffffffffffffff821115610cd257610cd2610d34565b5060051b60200190565b600067ffffffffffffffff821115610cf657610cf6610d34565b50601f01601f191660200190565b60005b83811015610d1f578181015183820152602001610d07565b83811115610d2e576000848401525b50505050565b634e487b7160e01b600052604160045260246000fd5b6001600160a01b03811681146105db57600080fdfea2646970667358221220c93f408b0aa4dc00c646d3c68363b63093fdd75530118a49812b4eae7e19ee3e64736f6c63430008040033",
  "linkReferences": {},
  "deployedLinkReferences": {}
}