{"contracts/Proxy.sol":{"Proxy":{"abi":[{"inputs":[{"internalType":"address","name":"_transferAddress","type":"address"},{"internalType":"address","name":"_voteAddress","type":"address"}],"stateMutability":"nonpayable","type":"constructor"},{"anonymous":false,"inputs":[{"indexed":false,"internalType":"bytes4","name":"sig","type":"bytes4"}],"name":"FallbackCalled","type":"event"},{"inputs":[{"internalType":"string","name":"name","type":"string"},{"internalType":"uint256","name":"candidateId","type":"uint256"},{"internalType":"string","name":"party","type":"string"}],"name":"addCandidates","outputs":[],"stateMutability":"payable","type":"function"},{"inputs":[{"internalType":"address payable","name":"_to","type":"address"}],"name":"callTransfer","outputs":[],"stateMutability":"payable","type":"function"},{"inputs":[],"name":"getListCandidates","outputs":[{"internalType":"string[]","name":"candidateNames","type":"string[]"},{"internalType":"uint256[]","name":"ids","type":"uint256[]"},{"internalType":"string[]","name":"party","type":"string[]"},{"internalType":"uint256[]","name":"voteCounts","type":"uint256[]"}],"stateMutability":"view","type":"function"},{"inputs":[{"internalType":"address","name":"voter","type":"address"}],"name":"getVote","outputs":[{"internalType":"bool","name":"hasVote","type":"bool"}],"stateMutability":"view","type":"function"},{"inputs":[],"name":"getWinner","outputs":[{"internalType":"string","name":"winnerName","type":"string"},{"internalType":"uint256","name":"winnerVoteCount","type":"uint256"}],"stateMutability":"view","type":"function"},{"inputs":[{"internalType":"string","name":"_selector","type":"string"},{"internalType":"address","name":"_newImplementation","type":"address"}],"name":"updateProxy","outputs":[],"stateMutability":"nonpayable","type":"function"},{"inputs":[{"internalType":"uint256","name":"candidateId","type":"uint256"},{"internalType":"address","name":"voter","type":"address"}],"name":"vote","outputs":[],"stateMutability":"payable","type":"function"}],"evm":{"bytecode":{"linkReferences":{},"object":"608060405234801561001057600080fd5b50604051610dc1380380610dc183398101604081905261002f91610163565b600180546001600160a01b039384166001600160a01b0319918216811790925560028054939094169281168317909355600060208190527f65d4675a546b3c73e6edb83d0c4efe6c0303339f8ba8dfbefcb0e53a4f11bf0a805485169092179091557f0cc6f6e639e668ee68cd4d7dc107c2f84cafaa016e37174dfbcf2ecd7cfc57dd80548416831790557f6d5961e9929ddb6eca32ac56e5f06e2417f97f632fdc6de1fe0825693162f88580548416831790557f958ea126b57d6cbb118503fe0dfe7ee3227ddd0b445ddd9756b706d623d6aa7e80548416831790557f8f02308d80ef99d8a06474d037a9fde0a96242681145e5a30da848c0aeccebe7805490931690911790915563690ff8a160e01b9052610195565b80516001600160a01b038116811461015e57600080fd5b919050565b60008060408385031215610175578182fd5b61017e83610147565b915061018c60208401610147565b90509250929050565b610c1d806101a46000396000f3fe6080604052600436106100705760003560e01c80638d337b811161004e5780638d337b81146100d85780638e7ea5b214610108578063dac8fa2a1461012b578063eec990f21461013e57600080fd5b806302d947ef146100755780634b9ab8501461008a578063690ff8a1146100aa575b600080fd5b610088610083366004610945565b610151565b005b34801561009657600080fd5b506100886100a5366004610846565b6101b3565b3480156100b657600080fd5b506100bf610216565b6040516100cf9493929190610a60565b60405180910390f35b3480156100e457600080fd5b506100f86100f336600461075b565b6102b4565b60405190151581526020016100cf565b34801561011457600080fd5b5061011d610338565b6040516100cf929190610ab8565b6100886101393660046108db565b6103ce565b61008861014c36600461075b565b61040c565b6101af7f02d947ef7e1bcf8fb01214590fc292969ae4d5e7f45d7813e715cc8b7f8f3eb5838360405160200161019a9291909182526001600160a01b0316602082015260400190565b604051602081830303815290604052346104a3565b5050565b6000826040516020016101c69190610a44565b60408051808303601f1901815291815281516020928301206001600160e01b031916600090815291829052902080546001600160a01b0319166001600160a01b0393909316929092179091555050565b606080606080600260009054906101000a90046001600160a01b03166001600160a01b031663690ff8a16040518163ffffffff1660e01b815260040160006040518083038186803b15801561026a57600080fd5b505afa15801561027e573d6000803e3d6000fd5b505050506040513d6000823e601f3d908101601f191682016040526102a6919081019061077e565b935093509350935090919293565b600254604051638d337b8160e01b81526001600160a01b0383811660048301526000921690638d337b819060240160206040518083038186803b1580156102fa57600080fd5b505afa15801561030e573d6000803e3d6000fd5b505050506040513d601f19601f820116820180604052508101906103329190610826565b92915050565b60606000600260009054906101000a90046001600160a01b03166001600160a01b0316638e7ea5b26040518163ffffffff1660e01b815260040160006040518083038186803b15801561038a57600080fd5b505afa15801561039e573d6000803e3d6000fd5b505050506040513d6000823e601f3d908101601f191682016040526103c69190810190610896565b915091509091565b6104077fe74f92526f0e4821225878e86d3c7f6ed75a1108786093265c86a02b373c57cb84848460405160200161019a93929190610ada565b505050565b600034116104615760405162461bcd60e51b815260206004820152601c60248201527f56616c7565206d7573742062652067726561746572207468616e20300000000060448201526064015b60405180910390fd5b604080516001600160a01b03831660208201526104a0917feab06849d7bc153eec39fb39c859939f6e1897fd8b7b2ef9f241bc115f9b57a7910161019a565b50565b6001600160e01b031983166000908152602081905260409020546001600160a01b0316806105135760405162461bcd60e51b815260206004820152601860248201527f496d706c656d656e746174696f6e206e6f7420666f756e6400000000000000006044820152606401610458565b6000816001600160a01b0316838686604051602001610533929190610a13565b60408051601f198184030181529082905261054d91610a44565b60006040518083038185875af1925050503d806000811461058a576040519150601f19603f3d011682016040523d82523d6000602084013e61058f565b606091505b50509050806105ce5760405162461bcd60e51b815260206004820152600b60248201526a10d85b1b0819985a5b195960aa1b6044820152606401610458565b5050505050565b600082601f8301126105e5578081fd5b815160206105fa6105f583610b40565b610b0f565b80838252828201915082860187848660051b8901011115610619578586fd5b855b8581101561065a57815167ffffffffffffffff811115610639578788fd5b6106478a87838c0101610710565b855250928401929084019060010161061b565b5090979650505050505050565b600082601f830112610677578081fd5b815160206106876105f583610b40565b80838252828201915082860187848660051b89010111156106a6578586fd5b855b8581101561065a578151845292840192908401906001016106a8565b600082601f8301126106d4578081fd5b81356106e26105f582610b64565b8181528460208386010111156106f6578283fd5b816020850160208301379081016020019190915292915050565b600082601f830112610720578081fd5b815161072e6105f582610b64565b818152846020838601011115610742578283fd5b610753826020830160208701610b8c565b949350505050565b60006020828403121561076c578081fd5b813561077781610bd2565b9392505050565b60008060008060808587031215610793578283fd5b845167ffffffffffffffff808211156107aa578485fd5b6107b6888389016105d5565b955060208701519150808211156107cb578485fd5b6107d788838901610667565b945060408701519150808211156107ec578384fd5b6107f8888389016105d5565b9350606087015191508082111561080d578283fd5b5061081a87828801610667565b91505092959194509250565b600060208284031215610837578081fd5b81518015158114610777578182fd5b60008060408385031215610858578182fd5b823567ffffffffffffffff81111561086e578283fd5b61087a858286016106c4565b925050602083013561088b81610bd2565b809150509250929050565b600080604083850312156108a8578182fd5b825167ffffffffffffffff8111156108be578283fd5b6108ca85828601610710565b925050602083015190509250929050565b6000806000606084860312156108ef578283fd5b833567ffffffffffffffff80821115610906578485fd5b610912878388016106c4565b945060208601359350604086013591508082111561092e578283fd5b5061093b868287016106c4565b9150509250925092565b60008060408385031215610957578182fd5b82359150602083013561088b81610bd2565b6000815180845260208085019450848260051b8601828601855b8581101561065a57838303895261099b8383516109e7565b98850198925090840190600101610983565b6000815180845260208085019450808401835b838110156109dc578151875295820195908201906001016109c0565b509495945050505050565b600081518084526109ff816020860160208601610b8c565b601f01601f19169290920160200192915050565b6001600160e01b0319831681528151600090610a36816004850160208701610b8c565b919091016004019392505050565b60008251610a56818460208701610b8c565b9190910192915050565b608081526000610a736080830187610969565b8281036020840152610a8581876109ad565b90508281036040840152610a998186610969565b90508281036060840152610aad81856109ad565b979650505050505050565b604081526000610acb60408301856109e7565b90508260208301529392505050565b606081526000610aed60608301866109e7565b8460208401528281036040840152610b0581856109e7565b9695505050505050565b604051601f8201601f1916810167ffffffffffffffff81118282101715610b3857610b38610bbc565b604052919050565b600067ffffffffffffffff821115610b5a57610b5a610bbc565b5060051b60200190565b600067ffffffffffffffff821115610b7e57610b7e610bbc565b50601f01601f191660200190565b60005b83811015610ba7578181015183820152602001610b8f565b83811115610bb6576000848401525b50505050565b634e487b7160e01b600052604160045260246000fd5b6001600160a01b03811681146104a057600080fdfea26469706673582212203017f60fbaca7d7054ee9c78f471e95b2a7f96962758823897538c560bbea94664736f6c63430008040033","opcodes":"PUSH1 0x80 PUSH1 0x40 MSTORE CALLVALUE DUP1 ISZERO PUSH2 0x10 JUMPI PUSH1 0x0 DUP1 REVERT JUMPDEST POP PUSH1 0x40 MLOAD PUSH2 0xDC1 CODESIZE SUB DUP1 PUSH2 0xDC1 DUP4 CODECOPY DUP2 ADD PUSH1 0x40 DUP2 SWAP1 MSTORE PUSH2 0x2F SWAP2 PUSH2 0x163 JUMP JUMPDEST PUSH1 0x1 DUP1 SLOAD PUSH1 0x1 PUSH1 0x1 PUSH1 0xA0 SHL SUB SWAP4 DUP5 AND PUSH1 0x1 PUSH1 0x1 PUSH1 0xA0 SHL SUB NOT SWAP2 DUP3 AND DUP2 OR SWAP1 SWAP3 SSTORE PUSH1 0x2 DUP1 SLOAD SWAP4 SWAP1 SWAP5 AND SWAP3 DUP2 AND DUP4 OR SWAP1 SWAP4 SSTORE PUSH1 0x0 PUSH1 0x20 DUP2 SWAP1 MSTORE PUSH32 0x65D4675A546B3C73E6EDB83D0C4EFE6C0303339F8BA8DFBEFCB0E53A4F11BF0A DUP1 SLOAD DUP6 AND SWAP1 SWAP3 OR SWAP1 SWAP2 SSTORE PUSH32 0xCC6F6E639E668EE68CD4D7DC107C2F84CAFAA016E37174DFBCF2ECD7CFC57DD DUP1 SLOAD DUP5 AND DUP4 OR SWAP1 SSTORE PUSH32 0x6D5961E9929DDB6ECA32AC56E5F06E2417F97F632FDC6DE1FE0825693162F885 DUP1 SLOAD DUP5 AND DUP4 OR SWAP1 SSTORE PUSH32 0x958EA126B57D6CBB118503FE0DFE7EE3227DDD0B445DDD9756B706D623D6AA7E DUP1 SLOAD DUP5 AND DUP4 OR SWAP1 SSTORE PUSH32 0x8F02308D80EF99D8A06474D037A9FDE0A96242681145E5A30DA848C0AECCEBE7 DUP1 SLOAD SWAP1 SWAP4 AND SWAP1 SWAP2 OR SWAP1 SWAP2 SSTORE PUSH4 0x690FF8A1 PUSH1 0xE0 SHL SWAP1 MSTORE PUSH2 0x195 JUMP JUMPDEST DUP1 MLOAD PUSH1 0x1 PUSH1 0x1 PUSH1 0xA0 SHL SUB DUP2 AND DUP2 EQ PUSH2 0x15E JUMPI PUSH1 0x0 DUP1 REVERT JUMPDEST SWAP2 SWAP1 POP JUMP JUMPDEST PUSH1 0x0 DUP1 PUSH1 0x40 DUP4 DUP6 SUB SLT ISZERO PUSH2 0x175 JUMPI DUP2 DUP3 REVERT JUMPDEST PUSH2 0x17E DUP4 PUSH2 0x147 JUMP JUMPDEST SWAP2 POP PUSH2 0x18C PUSH1 0x20 DUP5 ADD PUSH2 0x147 JUMP JUMPDEST SWAP1 POP SWAP3 POP SWAP3 SWAP1 POP JUMP JUMPDEST PUSH2 0xC1D DUP1 PUSH2 0x1A4 PUSH1 0x0 CODECOPY PUSH1 0x0 RETURN INVALID PUSH1 0x80 PUSH1 0x40 MSTORE PUSH1 0x4 CALLDATASIZE LT PUSH2 0x70 JUMPI PUSH1 0x0 CALLDATALOAD PUSH1 0xE0 SHR DUP1 PUSH4 0x8D337B81 GT PUSH2 0x4E JUMPI DUP1 PUSH4 0x8D337B81 EQ PUSH2 0xD8 JUMPI DUP1 PUSH4 0x8E7EA5B2 EQ PUSH2 0x108 JUMPI DUP1 PUSH4 0xDAC8FA2A EQ PUSH2 0x12B JUMPI DUP1 PUSH4 0xEEC990F2 EQ PUSH2 0x13E JUMPI PUSH1 0x0 DUP1 REVERT JUMPDEST DUP1 PUSH4 0x2D947EF EQ PUSH2 0x75 JUMPI DUP1 PUSH4 0x4B9AB850 EQ PUSH2 0x8A JUMPI DUP1 PUSH4 0x690FF8A1 EQ PUSH2 0xAA JUMPI JUMPDEST PUSH1 0x0 DUP1 REVERT JUMPDEST PUSH2 0x88 PUSH2 0x83 CALLDATASIZE PUSH1 0x4 PUSH2 0x945 JUMP JUMPDEST PUSH2 0x151 JUMP JUMPDEST STOP JUMPDEST CALLVALUE DUP1 ISZERO PUSH2 0x96 JUMPI PUSH1 0x0 DUP1 REVERT JUMPDEST POP PUSH2 0x88 PUSH2 0xA5 CALLDATASIZE PUSH1 0x4 PUSH2 0x846 JUMP JUMPDEST PUSH2 0x1B3 JUMP JUMPDEST CALLVALUE DUP1 ISZERO PUSH2 0xB6 JUMPI PUSH1 0x0 DUP1 REVERT JUMPDEST POP PUSH2 0xBF PUSH2 0x216 JUMP JUMPDEST PUSH1 0x40 MLOAD PUSH2 0xCF SWAP5 SWAP4 SWAP3 SWAP2 SWAP1 PUSH2 0xA60 JUMP JUMPDEST PUSH1 0x40 MLOAD DUP1 SWAP2 SUB SWAP1 RETURN JUMPDEST CALLVALUE DUP1 ISZERO PUSH2 0xE4 JUMPI PUSH1 0x0 DUP1 REVERT JUMPDEST POP PUSH2 0xF8 PUSH2 0xF3 CALLDATASIZE PUSH1 0x4 PUSH2 0x75B JUMP JUMPDEST PUSH2 0x2B4 JUMP JUMPDEST PUSH1 0x40 MLOAD SWAP1 ISZERO ISZERO DUP2 MSTORE PUSH1 0x20 ADD PUSH2 0xCF JUMP JUMPDEST CALLVALUE DUP1 ISZERO PUSH2 0x114 JUMPI PUSH1 0x0 DUP1 REVERT JUMPDEST POP PUSH2 0x11D PUSH2 0x338 JUMP JUMPDEST PUSH1 0x40 MLOAD PUSH2 0xCF SWAP3 SWAP2 SWAP1 PUSH2 0xAB8 JUMP JUMPDEST PUSH2 0x88 PUSH2 0x139 CALLDATASIZE PUSH1 0x4 PUSH2 0x8DB JUMP JUMPDEST PUSH2 0x3CE JUMP JUMPDEST PUSH2 0x88 PUSH2 0x14C CALLDATASIZE PUSH1 0x4 PUSH2 0x75B JUMP JUMPDEST PUSH2 0x40C JUMP JUMPDEST PUSH2 0x1AF PUSH32 0x2D947EF7E1BCF8FB01214590FC292969AE4D5E7F45D7813E715CC8B7F8F3EB5 DUP4 DUP4 PUSH1 0x40 MLOAD PUSH1 0x20 ADD PUSH2 0x19A SWAP3 SWAP2 SWAP1 SWAP2 DUP3 MSTORE PUSH1 0x1 PUSH1 0x1 PUSH1 0xA0 SHL SUB AND PUSH1 0x20 DUP3 ADD MSTORE PUSH1 0x40 ADD SWAP1 JUMP JUMPDEST PUSH1 0x40 MLOAD PUSH1 0x20 DUP2 DUP4 SUB SUB DUP2 MSTORE SWAP1 PUSH1 0x40 MSTORE CALLVALUE PUSH2 0x4A3 JUMP JUMPDEST POP POP JUMP JUMPDEST PUSH1 0x0 DUP3 PUSH1 0x40 MLOAD PUSH1 0x20 ADD PUSH2 0x1C6 SWAP2 SWAP1 PUSH2 0xA44 JUMP JUMPDEST PUSH1 0x40 DUP1 MLOAD DUP1 DUP4 SUB PUSH1 0x1F NOT ADD DUP2 MSTORE SWAP2 DUP2 MSTORE DUP2 MLOAD PUSH1 0x20 SWAP3 DUP4 ADD KECCAK256 PUSH1 0x1 PUSH1 0x1 PUSH1 0xE0 SHL SUB NOT AND PUSH1 0x0 SWAP1 DUP2 MSTORE SWAP2 DUP3 SWAP1 MSTORE SWAP1 KECCAK256 DUP1 SLOAD PUSH1 0x1 PUSH1 0x1 PUSH1 0xA0 SHL SUB NOT AND PUSH1 0x1 PUSH1 0x1 PUSH1 0xA0 SHL SUB SWAP4 SWAP1 SWAP4 AND SWAP3 SWAP1 SWAP3 OR SWAP1 SWAP2 SSTORE POP POP JUMP JUMPDEST PUSH1 0x60 DUP1 PUSH1 0x60 DUP1 PUSH1 0x2 PUSH1 0x0 SWAP1 SLOAD SWAP1 PUSH2 0x100 EXP SWAP1 DIV PUSH1 0x1 PUSH1 0x1 PUSH1 0xA0 SHL SUB AND PUSH1 0x1 PUSH1 0x1 PUSH1 0xA0 SHL SUB AND PUSH4 0x690FF8A1 PUSH1 0x40 MLOAD DUP2 PUSH4 0xFFFFFFFF AND PUSH1 0xE0 SHL DUP2 MSTORE PUSH1 0x4 ADD PUSH1 0x0 PUSH1 0x40 MLOAD DUP1 DUP4 SUB DUP2 DUP7 DUP1 EXTCODESIZE ISZERO DUP1 ISZERO PUSH2 0x26A JUMPI PUSH1 0x0 DUP1 REVERT JUMPDEST POP GAS STATICCALL ISZERO DUP1 ISZERO PUSH2 0x27E JUMPI RETURNDATASIZE PUSH1 0x0 DUP1 RETURNDATACOPY RETURNDATASIZE PUSH1 0x0 REVERT JUMPDEST POP POP POP POP PUSH1 0x40 MLOAD RETURNDATASIZE PUSH1 0x0 DUP3 RETURNDATACOPY PUSH1 0x1F RETURNDATASIZE SWAP1 DUP2 ADD PUSH1 0x1F NOT AND DUP3 ADD PUSH1 0x40 MSTORE PUSH2 0x2A6 SWAP2 SWAP1 DUP2 ADD SWAP1 PUSH2 0x77E JUMP JUMPDEST SWAP4 POP SWAP4 POP SWAP4 POP SWAP4 POP SWAP1 SWAP2 SWAP3 SWAP4 JUMP JUMPDEST PUSH1 0x2 SLOAD PUSH1 0x40 MLOAD PUSH4 0x8D337B81 PUSH1 0xE0 SHL DUP2 MSTORE PUSH1 0x1 PUSH1 0x1 PUSH1 0xA0 SHL SUB DUP4 DUP2 AND PUSH1 0x4 DUP4 ADD MSTORE PUSH1 0x0 SWAP3 AND SWAP1 PUSH4 0x8D337B81 SWAP1 PUSH1 0x24 ADD PUSH1 0x20 PUSH1 0x40 MLOAD DUP1 DUP4 SUB DUP2 DUP7 DUP1 EXTCODESIZE ISZERO DUP1 ISZERO PUSH2 0x2FA JUMPI PUSH1 0x0 DUP1 REVERT JUMPDEST POP GAS STATICCALL ISZERO DUP1 ISZERO PUSH2 0x30E JUMPI RETURNDATASIZE PUSH1 0x0 DUP1 RETURNDATACOPY RETURNDATASIZE PUSH1 0x0 REVERT JUMPDEST POP POP POP POP PUSH1 0x40 MLOAD RETURNDATASIZE PUSH1 0x1F NOT PUSH1 0x1F DUP3 ADD AND DUP3 ADD DUP1 PUSH1 0x40 MSTORE POP DUP2 ADD SWAP1 PUSH2 0x332 SWAP2 SWAP1 PUSH2 0x826 JUMP JUMPDEST SWAP3 SWAP2 POP POP JUMP JUMPDEST PUSH1 0x60 PUSH1 0x0 PUSH1 0x2 PUSH1 0x0 SWAP1 SLOAD SWAP1 PUSH2 0x100 EXP SWAP1 DIV PUSH1 0x1 PUSH1 0x1 PUSH1 0xA0 SHL SUB AND PUSH1 0x1 PUSH1 0x1 PUSH1 0xA0 SHL SUB AND PUSH4 0x8E7EA5B2 PUSH1 0x40 MLOAD DUP2 PUSH4 0xFFFFFFFF AND PUSH1 0xE0 SHL DUP2 MSTORE PUSH1 0x4 ADD PUSH1 0x0 PUSH1 0x40 MLOAD DUP1 DUP4 SUB DUP2 DUP7 DUP1 EXTCODESIZE ISZERO DUP1 ISZERO PUSH2 0x38A JUMPI PUSH1 0x0 DUP1 REVERT JUMPDEST POP GAS STATICCALL ISZERO DUP1 ISZERO PUSH2 0x39E JUMPI RETURNDATASIZE PUSH1 0x0 DUP1 RETURNDATACOPY RETURNDATASIZE PUSH1 0x0 REVERT JUMPDEST POP POP POP POP PUSH1 0x40 MLOAD RETURNDATASIZE PUSH1 0x0 DUP3 RETURNDATACOPY PUSH1 0x1F RETURNDATASIZE SWAP1 DUP2 ADD PUSH1 0x1F NOT AND DUP3 ADD PUSH1 0x40 MSTORE PUSH2 0x3C6 SWAP2 SWAP1 DUP2 ADD SWAP1 PUSH2 0x896 JUMP JUMPDEST SWAP2 POP SWAP2 POP SWAP1 SWAP2 JUMP JUMPDEST PUSH2 0x407 PUSH32 0xE74F92526F0E4821225878E86D3C7F6ED75A1108786093265C86A02B373C57CB DUP5 DUP5 DUP5 PUSH1 0x40 MLOAD PUSH1 0x20 ADD PUSH2 0x19A SWAP4 SWAP3 SWAP2 SWAP1 PUSH2 0xADA JUMP JUMPDEST POP POP POP JUMP JUMPDEST PUSH1 0x0 CALLVALUE GT PUSH2 0x461 JUMPI PUSH1 0x40 MLOAD PUSH3 0x461BCD PUSH1 0xE5 SHL DUP2 MSTORE PUSH1 0x20 PUSH1 0x4 DUP3 ADD MSTORE PUSH1 0x1C PUSH1 0x24 DUP3 ADD MSTORE PUSH32 0x56616C7565206D7573742062652067726561746572207468616E203000000000 PUSH1 0x44 DUP3 ADD MSTORE PUSH1 0x64 ADD JUMPDEST PUSH1 0x40 MLOAD DUP1 SWAP2 SUB SWAP1 REVERT JUMPDEST PUSH1 0x40 DUP1 MLOAD PUSH1 0x1 PUSH1 0x1 PUSH1 0xA0 SHL SUB DUP4 AND PUSH1 0x20 DUP3 ADD MSTORE PUSH2 0x4A0 SWAP2 PUSH32 0xEAB06849D7BC153EEC39FB39C859939F6E1897FD8B7B2EF9F241BC115F9B57A7 SWAP2 ADD PUSH2 0x19A JUMP JUMPDEST POP JUMP JUMPDEST PUSH1 0x1 PUSH1 0x1 PUSH1 0xE0 SHL SUB NOT DUP4 AND PUSH1 0x0 SWAP1 DUP2 MSTORE PUSH1 0x20 DUP2 SWAP1 MSTORE PUSH1 0x40 SWAP1 KECCAK256 SLOAD PUSH1 0x1 PUSH1 0x1 PUSH1 0xA0 SHL SUB AND DUP1 PUSH2 0x513 JUMPI PUSH1 0x40 MLOAD PUSH3 0x461BCD PUSH1 0xE5 SHL DUP2 MSTORE PUSH1 0x20 PUSH1 0x4 DUP3 ADD MSTORE PUSH1 0x18 PUSH1 0x24 DUP3 ADD MSTORE PUSH32 0x496D706C656D656E746174696F6E206E6F7420666F756E640000000000000000 PUSH1 0x44 DUP3 ADD MSTORE PUSH1 0x64 ADD PUSH2 0x458 JUMP JUMPDEST PUSH1 0x0 DUP2 PUSH1 0x1 PUSH1 0x1 PUSH1 0xA0 SHL SUB AND DUP4 DUP7 DUP7 PUSH1 0x40 MLOAD PUSH1 0x20 ADD PUSH2 0x533 SWAP3 SWAP2 SWAP1 PUSH2 0xA13 JUMP JUMPDEST PUSH1 0x40 DUP1 MLOAD PUSH1 0x1F NOT DUP2 DUP5 SUB ADD DUP2 MSTORE SWAP1 DUP3 SWAP1 MSTORE PUSH2 0x54D SWAP2 PUSH2 0xA44 JUMP JUMPDEST PUSH1 0x0 PUSH1 0x40 MLOAD DUP1 DUP4 SUB DUP2 DUP6 DUP8 GAS CALL SWAP3 POP POP POP RETURNDATASIZE DUP1 PUSH1 0x0 DUP2 EQ PUSH2 0x58A JUMPI PUSH1 0x40 MLOAD SWAP2 POP PUSH1 0x1F NOT PUSH1 0x3F RETURNDATASIZE ADD AND DUP3 ADD PUSH1 0x40 MSTORE RETURNDATASIZE DUP3 MSTORE RETURNDATASIZE PUSH1 0x0 PUSH1 0x20 DUP5 ADD RETURNDATACOPY PUSH2 0x58F JUMP JUMPDEST PUSH1 0x60 SWAP2 POP JUMPDEST POP POP SWAP1 POP DUP1 PUSH2 0x5CE JUMPI PUSH1 0x40 MLOAD PUSH3 0x461BCD PUSH1 0xE5 SHL DUP2 MSTORE PUSH1 0x20 PUSH1 0x4 DUP3 ADD MSTORE PUSH1 0xB PUSH1 0x24 DUP3 ADD MSTORE PUSH11 0x10D85B1B0819985A5B1959 PUSH1 0xAA SHL PUSH1 0x44 DUP3 ADD MSTORE PUSH1 0x64 ADD PUSH2 0x458 JUMP JUMPDEST POP POP POP POP POP JUMP JUMPDEST PUSH1 0x0 DUP3 PUSH1 0x1F DUP4 ADD SLT PUSH2 0x5E5 JUMPI DUP1 DUP2 REVERT JUMPDEST DUP2 MLOAD PUSH1 0x20 PUSH2 0x5FA PUSH2 0x5F5 DUP4 PUSH2 0xB40 JUMP JUMPDEST PUSH2 0xB0F JUMP JUMPDEST DUP1 DUP4 DUP3 MSTORE DUP3 DUP3 ADD SWAP2 POP DUP3 DUP7 ADD DUP8 DUP5 DUP7 PUSH1 0x5 SHL DUP10 ADD ADD GT ISZERO PUSH2 0x619 JUMPI DUP6 DUP7 REVERT JUMPDEST DUP6 JUMPDEST DUP6 DUP2 LT ISZERO PUSH2 0x65A JUMPI DUP2 MLOAD PUSH8 0xFFFFFFFFFFFFFFFF DUP2 GT ISZERO PUSH2 0x639 JUMPI DUP8 DUP9 REVERT JUMPDEST PUSH2 0x647 DUP11 DUP8 DUP4 DUP13 ADD ADD PUSH2 0x710 JUMP JUMPDEST DUP6 MSTORE POP SWAP3 DUP5 ADD SWAP3 SWAP1 DUP5 ADD SWAP1 PUSH1 0x1 ADD PUSH2 0x61B JUMP JUMPDEST POP SWAP1 SWAP8 SWAP7 POP POP POP POP POP POP POP JUMP JUMPDEST PUSH1 0x0 DUP3 PUSH1 0x1F DUP4 ADD SLT PUSH2 0x677 JUMPI DUP1 DUP2 REVERT JUMPDEST DUP2 MLOAD PUSH1 0x20 PUSH2 0x687 PUSH2 0x5F5 DUP4 PUSH2 0xB40 JUMP JUMPDEST DUP1 DUP4 DUP3 MSTORE DUP3 DUP3 ADD SWAP2 POP DUP3 DUP7 ADD DUP8 DUP5 DUP7 PUSH1 0x5 SHL DUP10 ADD ADD GT ISZERO PUSH2 0x6A6 JUMPI DUP6 DUP7 REVERT JUMPDEST DUP6 JUMPDEST DUP6 DUP2 LT ISZERO PUSH2 0x65A JUMPI DUP2 MLOAD DUP5 MSTORE SWAP3 DUP5 ADD SWAP3 SWAP1 DUP5 ADD SWAP1 PUSH1 0x1 ADD PUSH2 0x6A8 JUMP JUMPDEST PUSH1 0x0 DUP3 PUSH1 0x1F DUP4 ADD SLT PUSH2 0x6D4 JUMPI DUP1 DUP2 REVERT JUMPDEST DUP2 CALLDATALOAD PUSH2 0x6E2 PUSH2 0x5F5 DUP3 PUSH2 0xB64 JUMP JUMPDEST DUP2 DUP2 MSTORE DUP5 PUSH1 0x20 DUP4 DUP7 ADD ADD GT ISZERO PUSH2 0x6F6 JUMPI DUP3 DUP4 REVERT JUMPDEST DUP2 PUSH1 0x20 DUP6 ADD PUSH1 0x20 DUP4 ADD CALLDATACOPY SWAP1 DUP2 ADD PUSH1 0x20 ADD SWAP2 SWAP1 SWAP2 MSTORE SWAP3 SWAP2 POP POP JUMP JUMPDEST PUSH1 0x0 DUP3 PUSH1 0x1F DUP4 ADD SLT PUSH2 0x720 JUMPI DUP1 DUP2 REVERT JUMPDEST DUP2 MLOAD PUSH2 0x72E PUSH2 0x5F5 DUP3 PUSH2 0xB64 JUMP JUMPDEST DUP2 DUP2 MSTORE DUP5 PUSH1 0x20 DUP4 DUP7 ADD ADD GT ISZERO PUSH2 0x742 JUMPI DUP3 DUP4 REVERT JUMPDEST PUSH2 0x753 DUP3 PUSH1 0x20 DUP4 ADD PUSH1 0x20 DUP8 ADD PUSH2 0xB8C JUMP JUMPDEST SWAP5 SWAP4 POP POP POP POP JUMP JUMPDEST PUSH1 0x0 PUSH1 0x20 DUP3 DUP5 SUB SLT ISZERO PUSH2 0x76C JUMPI DUP1 DUP2 REVERT JUMPDEST DUP2 CALLDATALOAD PUSH2 0x777 DUP2 PUSH2 0xBD2 JUMP JUMPDEST SWAP4 SWAP3 POP POP POP JUMP JUMPDEST PUSH1 0x0 DUP1 PUSH1 0x0 DUP1 PUSH1 0x80 DUP6 DUP8 SUB SLT ISZERO PUSH2 0x793 JUMPI DUP3 DUP4 REVERT JUMPDEST DUP5 MLOAD PUSH8 0xFFFFFFFFFFFFFFFF DUP1 DUP3 GT ISZERO PUSH2 0x7AA JUMPI DUP5 DUP6 REVERT JUMPDEST PUSH2 0x7B6 DUP9 DUP4 DUP10 ADD PUSH2 0x5D5 JUMP JUMPDEST SWAP6 POP PUSH1 0x20 DUP8 ADD MLOAD SWAP2 POP DUP1 DUP3 GT ISZERO PUSH2 0x7CB JUMPI DUP5 DUP6 REVERT JUMPDEST PUSH2 0x7D7 DUP9 DUP4 DUP10 ADD PUSH2 0x667 JUMP JUMPDEST SWAP5 POP PUSH1 0x40 DUP8 ADD MLOAD SWAP2 POP DUP1 DUP3 GT ISZERO PUSH2 0x7EC JUMPI DUP4 DUP5 REVERT JUMPDEST PUSH2 0x7F8 DUP9 DUP4 DUP10 ADD PUSH2 0x5D5 JUMP JUMPDEST SWAP4 POP PUSH1 0x60 DUP8 ADD MLOAD SWAP2 POP DUP1 DUP3 GT ISZERO PUSH2 0x80D JUMPI DUP3 DUP4 REVERT JUMPDEST POP PUSH2 0x81A DUP8 DUP3 DUP9 ADD PUSH2 0x667 JUMP JUMPDEST SWAP2 POP POP SWAP3 SWAP6 SWAP2 SWAP5 POP SWAP3 POP JUMP JUMPDEST PUSH1 0x0 PUSH1 0x20 DUP3 DUP5 SUB SLT ISZERO PUSH2 0x837 JUMPI DUP1 DUP2 REVERT JUMPDEST DUP2 MLOAD DUP1 ISZERO ISZERO DUP2 EQ PUSH2 0x777 JUMPI DUP2 DUP3 REVERT JUMPDEST PUSH1 0x0 DUP1 PUSH1 0x40 DUP4 DUP6 SUB SLT ISZERO PUSH2 0x858 JUMPI DUP2 DUP3 REVERT JUMPDEST DUP3 CALLDATALOAD PUSH8 0xFFFFFFFFFFFFFFFF DUP2 GT ISZERO PUSH2 0x86E JUMPI DUP3 DUP4 REVERT JUMPDEST PUSH2 0x87A DUP6 DUP3 DUP7 ADD PUSH2 0x6C4 JUMP JUMPDEST SWAP3 POP POP PUSH1 0x20 DUP4 ADD CALLDATALOAD PUSH2 0x88B DUP2 PUSH2 0xBD2 JUMP JUMPDEST DUP1 SWAP2 POP POP SWAP3 POP SWAP3 SWAP1 POP JUMP JUMPDEST PUSH1 0x0 DUP1 PUSH1 0x40 DUP4 DUP6 SUB SLT ISZERO PUSH2 0x8A8 JUMPI DUP2 DUP3 REVERT JUMPDEST DUP3 MLOAD PUSH8 0xFFFFFFFFFFFFFFFF DUP2 GT ISZERO PUSH2 0x8BE JUMPI DUP3 DUP4 REVERT JUMPDEST PUSH2 0x8CA DUP6 DUP3 DUP7 ADD PUSH2 0x710 JUMP JUMPDEST SWAP3 POP POP PUSH1 0x20 DUP4 ADD MLOAD SWAP1 POP SWAP3 POP SWAP3 SWAP1 POP JUMP JUMPDEST PUSH1 0x0 DUP1 PUSH1 0x0 PUSH1 0x60 DUP5 DUP7 SUB SLT ISZERO PUSH2 0x8EF JUMPI DUP3 DUP4 REVERT JUMPDEST DUP4 CALLDATALOAD PUSH8 0xFFFFFFFFFFFFFFFF DUP1 DUP3 GT ISZERO PUSH2 0x906 JUMPI DUP5 DUP6 REVERT JUMPDEST PUSH2 0x912 DUP8 DUP4 DUP9 ADD PUSH2 0x6C4 JUMP JUMPDEST SWAP5 POP PUSH1 0x20 DUP7 ADD CALLDATALOAD SWAP4 POP PUSH1 0x40 DUP7 ADD CALLDATALOAD SWAP2 POP DUP1 DUP3 GT ISZERO PUSH2 0x92E JUMPI DUP3 DUP4 REVERT JUMPDEST POP PUSH2 0x93B DUP7 DUP3 DUP8 ADD PUSH2 0x6C4 JUMP JUMPDEST SWAP2 POP POP SWAP3 POP SWAP3 POP SWAP3 JUMP JUMPDEST PUSH1 0x0 DUP1 PUSH1 0x40 DUP4 DUP6 SUB SLT ISZERO PUSH2 0x957 JUMPI DUP2 DUP3 REVERT JUMPDEST DUP3 CALLDATALOAD SWAP2 POP PUSH1 0x20 DUP4 ADD CALLDATALOAD PUSH2 0x88B DUP2 PUSH2 0xBD2 JUMP JUMPDEST PUSH1 0x0 DUP2 MLOAD DUP1 DUP5 MSTORE PUSH1 0x20 DUP1 DUP6 ADD SWAP5 POP DUP5 DUP3 PUSH1 0x5 SHL DUP7 ADD DUP3 DUP7 ADD DUP6 JUMPDEST DUP6 DUP2 LT ISZERO PUSH2 0x65A JUMPI DUP4 DUP4 SUB DUP10 MSTORE PUSH2 0x99B DUP4 DUP4 MLOAD PUSH2 0x9E7 JUMP JUMPDEST SWAP9 DUP6 ADD SWAP9 SWAP3 POP SWAP1 DUP5 ADD SWAP1 PUSH1 0x1 ADD PUSH2 0x983 JUMP JUMPDEST PUSH1 0x0 DUP2 MLOAD DUP1 DUP5 MSTORE PUSH1 0x20 DUP1 DUP6 ADD SWAP5 POP DUP1 DUP5 ADD DUP4 JUMPDEST DUP4 DUP2 LT ISZERO PUSH2 0x9DC JUMPI DUP2 MLOAD DUP8 MSTORE SWAP6 DUP3 ADD SWAP6 SWAP1 DUP3 ADD SWAP1 PUSH1 0x1 ADD PUSH2 0x9C0 JUMP JUMPDEST POP SWAP5 SWAP6 SWAP5 POP POP POP POP POP JUMP JUMPDEST PUSH1 0x0 DUP2 MLOAD DUP1 DUP5 MSTORE PUSH2 0x9FF DUP2 PUSH1 0x20 DUP7 ADD PUSH1 0x20 DUP7 ADD PUSH2 0xB8C JUMP JUMPDEST PUSH1 0x1F ADD PUSH1 0x1F NOT AND SWAP3 SWAP1 SWAP3 ADD PUSH1 0x20 ADD SWAP3 SWAP2 POP POP JUMP JUMPDEST PUSH1 0x1 PUSH1 0x1 PUSH1 0xE0 SHL SUB NOT DUP4 AND DUP2 MSTORE DUP2 MLOAD PUSH1 0x0 SWAP1 PUSH2 0xA36 DUP2 PUSH1 0x4 DUP6 ADD PUSH1 0x20 DUP8 ADD PUSH2 0xB8C JUMP JUMPDEST SWAP2 SWAP1 SWAP2 ADD PUSH1 0x4 ADD SWAP4 SWAP3 POP POP POP JUMP JUMPDEST PUSH1 0x0 DUP3 MLOAD PUSH2 0xA56 DUP2 DUP5 PUSH1 0x20 DUP8 ADD PUSH2 0xB8C JUMP JUMPDEST SWAP2 SWAP1 SWAP2 ADD SWAP3 SWAP2 POP POP JUMP JUMPDEST PUSH1 0x80 DUP2 MSTORE PUSH1 0x0 PUSH2 0xA73 PUSH1 0x80 DUP4 ADD DUP8 PUSH2 0x969 JUMP JUMPDEST DUP3 DUP2 SUB PUSH1 0x20 DUP5 ADD MSTORE PUSH2 0xA85 DUP2 DUP8 PUSH2 0x9AD JUMP JUMPDEST SWAP1 POP DUP3 DUP2 SUB PUSH1 0x40 DUP5 ADD MSTORE PUSH2 0xA99 DUP2 DUP7 PUSH2 0x969 JUMP JUMPDEST SWAP1 POP DUP3 DUP2 SUB PUSH1 0x60 DUP5 ADD MSTORE PUSH2 0xAAD DUP2 DUP6 PUSH2 0x9AD JUMP JUMPDEST SWAP8 SWAP7 POP POP POP POP POP POP POP JUMP JUMPDEST PUSH1 0x40 DUP2 MSTORE PUSH1 0x0 PUSH2 0xACB PUSH1 0x40 DUP4 ADD DUP6 PUSH2 0x9E7 JUMP JUMPDEST SWAP1 POP DUP3 PUSH1 0x20 DUP4 ADD MSTORE SWAP4 SWAP3 POP POP POP JUMP JUMPDEST PUSH1 0x60 DUP2 MSTORE PUSH1 0x0 PUSH2 0xAED PUSH1 0x60 DUP4 ADD DUP7 PUSH2 0x9E7 JUMP JUMPDEST DUP5 PUSH1 0x20 DUP5 ADD MSTORE DUP3 DUP2 SUB PUSH1 0x40 DUP5 ADD MSTORE PUSH2 0xB05 DUP2 DUP6 PUSH2 0x9E7 JUMP JUMPDEST SWAP7 SWAP6 POP POP POP POP POP POP JUMP JUMPDEST PUSH1 0x40 MLOAD PUSH1 0x1F DUP3 ADD PUSH1 0x1F NOT AND DUP2 ADD PUSH8 0xFFFFFFFFFFFFFFFF DUP2 GT DUP3 DUP3 LT OR ISZERO PUSH2 0xB38 JUMPI PUSH2 0xB38 PUSH2 0xBBC JUMP JUMPDEST PUSH1 0x40 MSTORE SWAP2 SWAP1 POP JUMP JUMPDEST PUSH1 0x0 PUSH8 0xFFFFFFFFFFFFFFFF DUP3 GT ISZERO PUSH2 0xB5A JUMPI PUSH2 0xB5A PUSH2 0xBBC JUMP JUMPDEST POP PUSH1 0x5 SHL PUSH1 0x20 ADD SWAP1 JUMP JUMPDEST PUSH1 0x0 PUSH8 0xFFFFFFFFFFFFFFFF DUP3 GT ISZERO PUSH2 0xB7E JUMPI PUSH2 0xB7E PUSH2 0xBBC JUMP JUMPDEST POP PUSH1 0x1F ADD PUSH1 0x1F NOT AND PUSH1 0x20 ADD SWAP1 JUMP JUMPDEST PUSH1 0x0 JUMPDEST DUP4 DUP2 LT ISZERO PUSH2 0xBA7 JUMPI DUP2 DUP2 ADD MLOAD DUP4 DUP3 ADD MSTORE PUSH1 0x20 ADD PUSH2 0xB8F JUMP JUMPDEST DUP4 DUP2 GT ISZERO PUSH2 0xBB6 JUMPI PUSH1 0x0 DUP5 DUP5 ADD MSTORE JUMPDEST POP POP POP POP JUMP JUMPDEST PUSH4 0x4E487B71 PUSH1 0xE0 SHL PUSH1 0x0 MSTORE PUSH1 0x41 PUSH1 0x4 MSTORE PUSH1 0x24 PUSH1 0x0 REVERT JUMPDEST PUSH1 0x1 PUSH1 0x1 PUSH1 0xA0 SHL SUB DUP2 AND DUP2 EQ PUSH2 0x4A0 JUMPI PUSH1 0x0 DUP1 REVERT INVALID LOG2 PUSH5 0x6970667358 0x22 SLT KECCAK256 ADDRESS OR 0xF6 0xF 0xBA 0xCA PUSH30 0x7054EE9C78F471E95B2A7F96962758823897538C560BBEA94664736F6C63 NUMBER STOP ADDMOD DIV STOP CALLER "},"methodIdentifiers":{"addCandidates(string,uint256,string)":"dac8fa2a","callTransfer(address)":"eec990f2","getListCandidates()":"690ff8a1","getVote(address)":"8d337b81","getWinner()":"8e7ea5b2","updateProxy(string,address)":"4b9ab850","vote(uint256,address)":"02d947ef"}},"storageLayout":{"storage":[{"astId":8,"contract":"contracts/Proxy.sol:Proxy","label":"implementations","offset":0,"slot":"0","type":"t_mapping(t_bytes4,t_address)"},{"astId":11,"contract":"contracts/Proxy.sol:Proxy","label":"transferContract","offset":0,"slot":"1","type":"t_contract(Transfer)338"},{"astId":14,"contract":"contracts/Proxy.sol:Proxy","label":"voteContract","offset":0,"slot":"2","type":"t_contract(Vote)751"}],"types":{"t_address":{"encoding":"inplace","label":"address","numberOfBytes":"20"},"t_bytes4":{"encoding":"inplace","label":"bytes4","numberOfBytes":"4"},"t_contract(Transfer)338":{"encoding":"inplace","label":"contract Transfer","numberOfBytes":"20"},"t_contract(Vote)751":{"encoding":"inplace","label":"contract Vote","numberOfBytes":"20"},"t_mapping(t_bytes4,t_address)":{"encoding":"mapping","key":"t_bytes4","label":"mapping(bytes4 => address)","numberOfBytes":"32","value":"t_address"}}}}}}