{"contracts/Transfer.sol":{"Transfer":{"abi":[{"anonymous":false,"inputs":[{"indexed":true,"internalType":"address","name":"from","type":"address"},{"indexed":false,"internalType":"address","name":"to","type":"address"},{"indexed":false,"internalType":"uint256","name":"amount","type":"uint256"}],"name":"transaction","type":"event"},{"inputs":[{"internalType":"address payable","name":"_to","type":"address"}],"name":"_transfer","outputs":[],"stateMutability":"payable","type":"function"}],"evm":{"bytecode":{"linkReferences":{},"object":"608060405234801561001057600080fd5b5061010f806100206000396000f3fe608060405260043610601c5760003560e01c8063eab06849146021575b600080fd5b6030602c36600460ad565b6032565b005b6040516001600160a01b038216903480156108fc02916000818181858888f193505050501580156066573d6000803e3d6000fd5b50604080516001600160a01b038316815234602082015233917fb5a151ba89290d7f3b668f3d1b864e555f3ce075ee899efe5df7c5abb6881fb7910160405180910390a250565b60006020828403121560bd578081fd5b81356001600160a01b038116811460d2578182fd5b939250505056fea264697066735822122026884adce23dc991f94d1ff4588331bb3cec0386bd61362486a56bde8304e8cb64736f6c63430008040033","opcodes":"PUSH1 0x80 PUSH1 0x40 MSTORE CALLVALUE DUP1 ISZERO PUSH2 0x10 JUMPI PUSH1 0x0 DUP1 REVERT JUMPDEST POP PUSH2 0x10F DUP1 PUSH2 0x20 PUSH1 0x0 CODECOPY PUSH1 0x0 RETURN INVALID PUSH1 0x80 PUSH1 0x40 MSTORE PUSH1 0x4 CALLDATASIZE LT PUSH1 0x1C JUMPI PUSH1 0x0 CALLDATALOAD PUSH1 0xE0 SHR DUP1 PUSH4 0xEAB06849 EQ PUSH1 0x21 JUMPI JUMPDEST PUSH1 0x0 DUP1 REVERT JUMPDEST PUSH1 0x30 PUSH1 0x2C CALLDATASIZE PUSH1 0x4 PUSH1 0xAD JUMP JUMPDEST PUSH1 0x32 JUMP JUMPDEST STOP JUMPDEST PUSH1 0x40 MLOAD PUSH1 0x1 PUSH1 0x1 PUSH1 0xA0 SHL SUB DUP3 AND SWAP1 CALLVALUE DUP1 ISZERO PUSH2 0x8FC MUL SWAP2 PUSH1 0x0 DUP2 DUP2 DUP2 DUP6 DUP9 DUP9 CALL SWAP4 POP POP POP POP ISZERO DUP1 ISZERO PUSH1 0x66 JUMPI RETURNDATASIZE PUSH1 0x0 DUP1 RETURNDATACOPY RETURNDATASIZE PUSH1 0x0 REVERT JUMPDEST POP PUSH1 0x40 DUP1 MLOAD PUSH1 0x1 PUSH1 0x1 PUSH1 0xA0 SHL SUB DUP4 AND DUP2 MSTORE CALLVALUE PUSH1 0x20 DUP3 ADD MSTORE CALLER SWAP2 PUSH32 0xB5A151BA89290D7F3B668F3D1B864E555F3CE075EE899EFE5DF7C5ABB6881FB7 SWAP2 ADD PUSH1 0x40 MLOAD DUP1 SWAP2 SUB SWAP1 LOG2 POP JUMP JUMPDEST PUSH1 0x0 PUSH1 0x20 DUP3 DUP5 SUB SLT ISZERO PUSH1 0xBD JUMPI DUP1 DUP2 REVERT JUMPDEST DUP2 CALLDATALOAD PUSH1 0x1 PUSH1 0x1 PUSH1 0xA0 SHL SUB DUP2 AND DUP2 EQ PUSH1 0xD2 JUMPI DUP2 DUP3 REVERT JUMPDEST SWAP4 SWAP3 POP POP POP JUMP INVALID LOG2 PUSH5 0x6970667358 0x22 SLT KECCAK256 0x26 DUP9 0x4A 0xDC 0xE2 RETURNDATASIZE 0xC9 SWAP2 0xF9 0x4D 0x1F DELEGATECALL PC DUP4 BALANCE 0xBB EXTCODECOPY 0xEC SUB DUP7 0xBD PUSH2 0x3624 DUP7 0xA5 PUSH12 0xDE8304E8CB64736F6C634300 ADDMOD DIV STOP CALLER "},"methodIdentifiers":{"_transfer(address)":"eab06849"}},"storageLayout":{"storage":[],"types":null}}}}