{"contracts/Proxy.sol":{"Proxy":{"abi":[{"anonymous":false,"inputs":[{"indexed":false,"internalType":"bytes4","name":"sig","type":"bytes4"}],"name":"FallbackCalled","type":"event"},{"inputs":[{"internalType":"string","name":"name","type":"string"},{"internalType":"uint256","name":"candidateId","type":"uint256"},{"internalType":"string","name":"party","type":"string"}],"name":"addCandidates","outputs":[],"stateMutability":"payable","type":"function"},{"inputs":[{"internalType":"address payable","name":"_to","type":"address"}],"name":"callTransfer","outputs":[],"stateMutability":"payable","type":"function"},{"inputs":[],"name":"getListCandidates","outputs":[{"internalType":"string[]","name":"candidateNames","type":"string[]"},{"internalType":"uint256[]","name":"ids","type":"uint256[]"},{"internalType":"string[]","name":"party","type":"string[]"},{"internalType":"uint256[]","name":"voteCounts","type":"uint256[]"}],"stateMutability":"view","type":"function"},{"inputs":[{"internalType":"address","name":"voter","type":"address"}],"name":"getVote","outputs":[{"internalType":"bool","name":"hasVote","type":"bool"}],"stateMutability":"view","type":"function"},{"inputs":[],"name":"getWinner","outputs":[{"internalType":"string","name":"winnerName","type":"string"},{"internalType":"uint256","name":"winnerVoteCount","type":"uint256"}],"stateMutability":"view","type":"function"},{"inputs":[{"internalType":"address","name":"_transferAddress","type":"address"},{"internalType":"address","name":"_voteAddress","type":"address"}],"name":"starting","outputs":[],"stateMutability":"nonpayable","type":"function"},{"inputs":[{"internalType":"string","name":"_selector","type":"string"},{"internalType":"address","name":"_newImplementation","type":"address"}],"name":"updateProxy","outputs":[],"stateMutability":"nonpayable","type":"function"},{"inputs":[{"internalType":"uint256","name":"candidateId","type":"uint256"},{"internalType":"address","name":"voter","type":"address"}],"name":"vote","outputs":[],"stateMutability":"payable","type":"function"}],"evm":{"bytecode":{"linkReferences":{},"object":"608060405234801561001057600080fd5b50610d95806100206000396000f3fe60806040526004361061007b5760003560e01c80638d337b811161004e5780638d337b81146102135780638e7ea5b214610243578063dac8fa2a14610266578063eec990f21461027957600080fd5b806302d947ef146100805780634b9ab850146100955780634d6f9dfb146100b5578063690ff8a1146101e5575b600080fd5b61009361008e366004610aad565b61028c565b005b3480156100a157600080fd5b506100936100b03660046109b9565b6102ee565b3480156100c157600080fd5b506100936100d03660046108b9565b600180546001600160a01b039384166001600160a01b0319918216811790925560028054939094169281168317909355600060208190527f65d4675a546b3c73e6edb83d0c4efe6c0303339f8ba8dfbefcb0e53a4f11bf0a805485169092179091557f0cc6f6e639e668ee68cd4d7dc107c2f84cafaa016e37174dfbcf2ecd7cfc57dd80548416831790557f6d5961e9929ddb6eca32ac56e5f06e2417f97f632fdc6de1fe0825693162f88580548416831790557f958ea126b57d6cbb118503fe0dfe7ee3227ddd0b445ddd9756b706d623d6aa7e80548416831790557f8f02308d80ef99d8a06474d037a9fde0a96242681145e5a30da848c0aeccebe7805490931690911790915563690ff8a160e01b9052565b3480156101f157600080fd5b506101fa610351565b60405161020a9493929190610bd8565b60405180910390f35b34801561021f57600080fd5b5061023361022e366004610896565b6103ef565b604051901515815260200161020a565b34801561024f57600080fd5b50610258610473565b60405161020a929190610c30565b610093610274366004610a43565b610509565b610093610287366004610896565b610547565b6102ea7f02d947ef7e1bcf8fb01214590fc292969ae4d5e7f45d7813e715cc8b7f8f3eb583836040516020016102d59291909182526001600160a01b0316602082015260400190565b604051602081830303815290604052346105de565b5050565b6000826040516020016103019190610bbc565b60408051808303601f1901815291815281516020928301206001600160e01b031916600090815291829052902080546001600160a01b0319166001600160a01b0393909316929092179091555050565b606080606080600260009054906101000a90046001600160a01b03166001600160a01b031663690ff8a16040518163ffffffff1660e01b815260040160006040518083038186803b1580156103a557600080fd5b505afa1580156103b9573d6000803e3d6000fd5b505050506040513d6000823e601f3d908101601f191682016040526103e191908101906108f1565b935093509350935090919293565b600254604051638d337b8160e01b81526001600160a01b0383811660048301526000921690638d337b819060240160206040518083038186803b15801561043557600080fd5b505afa158015610449573d6000803e3d6000fd5b505050506040513d601f19601f8201168201806040525081019061046d9190610999565b92915050565b60606000600260009054906101000a90046001600160a01b03166001600160a01b0316638e7ea5b26040518163ffffffff1660e01b815260040160006040518083038186803b1580156104c557600080fd5b505afa1580156104d9573d6000803e3d6000fd5b505050506040513d6000823e601f3d908101601f1916820160405261050191908101906109fe565b915091509091565b6105427fe74f92526f0e4821225878e86d3c7f6ed75a1108786093265c86a02b373c57cb8484846040516020016102d593929190610c52565b505050565b6000341161059c5760405162461bcd60e51b815260206004820152601c60248201527f56616c7565206d7573742062652067726561746572207468616e20300000000060448201526064015b60405180910390fd5b604080516001600160a01b03831660208201526105db917feab06849d7bc153eec39fb39c859939f6e1897fd8b7b2ef9f241bc115f9b57a791016102d5565b50565b6001600160e01b031983166000908152602081905260409020546001600160a01b03168061064e5760405162461bcd60e51b815260206004820152601860248201527f496d706c656d656e746174696f6e206e6f7420666f756e6400000000000000006044820152606401610593565b6000816001600160a01b031683868660405160200161066e929190610b8b565b60408051601f198184030181529082905261068891610bbc565b60006040518083038185875af1925050503d80600081146106c5576040519150601f19603f3d011682016040523d82523d6000602084013e6106ca565b606091505b50509050806107095760405162461bcd60e51b815260206004820152600b60248201526a10d85b1b0819985a5b195960aa1b6044820152606401610593565b5050505050565b600082601f830112610720578081fd5b8151602061073561073083610cb8565b610c87565b80838252828201915082860187848660051b8901011115610754578586fd5b855b8581101561079557815167ffffffffffffffff811115610774578788fd5b6107828a87838c010161084b565b8552509284019290840190600101610756565b5090979650505050505050565b600082601f8301126107b2578081fd5b815160206107c261073083610cb8565b80838252828201915082860187848660051b89010111156107e1578586fd5b855b85811015610795578151845292840192908401906001016107e3565b600082601f83011261080f578081fd5b813561081d61073082610cdc565b818152846020838601011115610831578283fd5b816020850160208301379081016020019190915292915050565b600082601f83011261085b578081fd5b815161086961073082610cdc565b81815284602083860101111561087d578283fd5b61088e826020830160208701610d04565b949350505050565b6000602082840312156108a7578081fd5b81356108b281610d4a565b9392505050565b600080604083850312156108cb578081fd5b82356108d681610d4a565b915060208301356108e681610d4a565b809150509250929050565b60008060008060808587031215610906578182fd5b845167ffffffffffffffff8082111561091d578384fd5b61092988838901610710565b9550602087015191508082111561093e578384fd5b61094a888389016107a2565b9450604087015191508082111561095f578384fd5b61096b88838901610710565b93506060870151915080821115610980578283fd5b5061098d878288016107a2565b91505092959194509250565b6000602082840312156109aa578081fd5b815180151581146108b2578182fd5b600080604083850312156109cb578182fd5b823567ffffffffffffffff8111156109e1578283fd5b6109ed858286016107ff565b92505060208301356108e681610d4a565b60008060408385031215610a10578182fd5b825167ffffffffffffffff811115610a26578283fd5b610a328582860161084b565b925050602083015190509250929050565b600080600060608486031215610a57578283fd5b833567ffffffffffffffff80821115610a6e578485fd5b610a7a878388016107ff565b9450602086013593506040860135915080821115610a96578283fd5b50610aa3868287016107ff565b9150509250925092565b60008060408385031215610abf578182fd5b8235915060208301356108e681610d4a565b600081518084526020808501808196508360051b81019150828601855b85811015610b18578284038952610b06848351610b5f565b98850198935090840190600101610aee565b5091979650505050505050565b6000815180845260208085019450808401835b83811015610b5457815187529582019590820190600101610b38565b509495945050505050565b60008151808452610b77816020860160208601610d04565b601f01601f19169290920160200192915050565b6001600160e01b0319831681528151600090610bae816004850160208701610d04565b919091016004019392505050565b60008251610bce818460208701610d04565b9190910192915050565b608081526000610beb6080830187610ad1565b8281036020840152610bfd8187610b25565b90508281036040840152610c118186610ad1565b90508281036060840152610c258185610b25565b979650505050505050565b604081526000610c436040830185610b5f565b90508260208301529392505050565b606081526000610c656060830186610b5f565b8460208401528281036040840152610c7d8185610b5f565b9695505050505050565b604051601f8201601f1916810167ffffffffffffffff81118282101715610cb057610cb0610d34565b604052919050565b600067ffffffffffffffff821115610cd257610cd2610d34565b5060051b60200190565b600067ffffffffffffffff821115610cf657610cf6610d34565b50601f01601f191660200190565b60005b83811015610d1f578181015183820152602001610d07565b83811115610d2e576000848401525b50505050565b634e487b7160e01b600052604160045260246000fd5b6001600160a01b03811681146105db57600080fdfea2646970667358221220c93f408b0aa4dc00c646d3c68363b63093fdd75530118a49812b4eae7e19ee3e64736f6c63430008040033","opcodes":"PUSH1 0x80 PUSH1 0x40 MSTORE CALLVALUE DUP1 ISZERO PUSH2 0x10 JUMPI PUSH1 0x0 DUP1 REVERT JUMPDEST POP PUSH2 0xD95 DUP1 PUSH2 0x20 PUSH1 0x0 CODECOPY PUSH1 0x0 RETURN INVALID PUSH1 0x80 PUSH1 0x40 MSTORE PUSH1 0x4 CALLDATASIZE LT PUSH2 0x7B JUMPI PUSH1 0x0 CALLDATALOAD PUSH1 0xE0 SHR DUP1 PUSH4 0x8D337B81 GT PUSH2 0x4E JUMPI DUP1 PUSH4 0x8D337B81 EQ PUSH2 0x213 JUMPI DUP1 PUSH4 0x8E7EA5B2 EQ PUSH2 0x243 JUMPI DUP1 PUSH4 0xDAC8FA2A EQ PUSH2 0x266 JUMPI DUP1 PUSH4 0xEEC990F2 EQ PUSH2 0x279 JUMPI PUSH1 0x0 DUP1 REVERT JUMPDEST DUP1 PUSH4 0x2D947EF EQ PUSH2 0x80 JUMPI DUP1 PUSH4 0x4B9AB850 EQ PUSH2 0x95 JUMPI DUP1 PUSH4 0x4D6F9DFB EQ PUSH2 0xB5 JUMPI DUP1 PUSH4 0x690FF8A1 EQ PUSH2 0x1E5 JUMPI JUMPDEST PUSH1 0x0 DUP1 REVERT JUMPDEST PUSH2 0x93 PUSH2 0x8E CALLDATASIZE PUSH1 0x4 PUSH2 0xAAD JUMP JUMPDEST PUSH2 0x28C JUMP JUMPDEST STOP JUMPDEST CALLVALUE DUP1 ISZERO PUSH2 0xA1 JUMPI PUSH1 0x0 DUP1 REVERT JUMPDEST POP PUSH2 0x93 PUSH2 0xB0 CALLDATASIZE PUSH1 0x4 PUSH2 0x9B9 JUMP JUMPDEST PUSH2 0x2EE JUMP JUMPDEST CALLVALUE DUP1 ISZERO PUSH2 0xC1 JUMPI PUSH1 0x0 DUP1 REVERT JUMPDEST POP PUSH2 0x93 PUSH2 0xD0 CALLDATASIZE PUSH1 0x4 PUSH2 0x8B9 JUMP JUMPDEST PUSH1 0x1 DUP1 SLOAD PUSH1 0x1 PUSH1 0x1 PUSH1 0xA0 SHL SUB SWAP4 DUP5 AND PUSH1 0x1 PUSH1 0x1 PUSH1 0xA0 SHL SUB NOT SWAP2 DUP3 AND DUP2 OR SWAP1 SWAP3 SSTORE PUSH1 0x2 DUP1 SLOAD SWAP4 SWAP1 SWAP5 AND SWAP3 DUP2 AND DUP4 OR SWAP1 SWAP4 SSTORE PUSH1 0x0 PUSH1 0x20 DUP2 SWAP1 MSTORE PUSH32 0x65D4675A546B3C73E6EDB83D0C4EFE6C0303339F8BA8DFBEFCB0E53A4F11BF0A DUP1 SLOAD DUP6 AND SWAP1 SWAP3 OR SWAP1 SWAP2 SSTORE PUSH32 0xCC6F6E639E668EE68CD4D7DC107C2F84CAFAA016E37174DFBCF2ECD7CFC57DD DUP1 SLOAD DUP5 AND DUP4 OR SWAP1 SSTORE PUSH32 0x6D5961E9929DDB6ECA32AC56E5F06E2417F97F632FDC6DE1FE0825693162F885 DUP1 SLOAD DUP5 AND DUP4 OR SWAP1 SSTORE PUSH32 0x958EA126B57D6CBB118503FE0DFE7EE3227DDD0B445DDD9756B706D623D6AA7E DUP1 SLOAD DUP5 AND DUP4 OR SWAP1 SSTORE PUSH32 0x8F02308D80EF99D8A06474D037A9FDE0A96242681145E5A30DA848C0AECCEBE7 DUP1 SLOAD SWAP1 SWAP4 AND SWAP1 SWAP2 OR SWAP1 SWAP2 SSTORE PUSH4 0x690FF8A1 PUSH1 0xE0 SHL SWAP1 MSTORE JUMP JUMPDEST CALLVALUE DUP1 ISZERO PUSH2 0x1F1 JUMPI PUSH1 0x0 DUP1 REVERT JUMPDEST POP PUSH2 0x1FA PUSH2 0x351 JUMP JUMPDEST PUSH1 0x40 MLOAD PUSH2 0x20A SWAP5 SWAP4 SWAP3 SWAP2 SWAP1 PUSH2 0xBD8 JUMP JUMPDEST PUSH1 0x40 MLOAD DUP1 SWAP2 SUB SWAP1 RETURN JUMPDEST CALLVALUE DUP1 ISZERO PUSH2 0x21F JUMPI PUSH1 0x0 DUP1 REVERT JUMPDEST POP PUSH2 0x233 PUSH2 0x22E CALLDATASIZE PUSH1 0x4 PUSH2 0x896 JUMP JUMPDEST PUSH2 0x3EF JUMP JUMPDEST PUSH1 0x40 MLOAD SWAP1 ISZERO ISZERO DUP2 MSTORE PUSH1 0x20 ADD PUSH2 0x20A JUMP JUMPDEST CALLVALUE DUP1 ISZERO PUSH2 0x24F JUMPI PUSH1 0x0 DUP1 REVERT JUMPDEST POP PUSH2 0x258 PUSH2 0x473 JUMP JUMPDEST PUSH1 0x40 MLOAD PUSH2 0x20A SWAP3 SWAP2 SWAP1 PUSH2 0xC30 JUMP JUMPDEST PUSH2 0x93 PUSH2 0x274 CALLDATASIZE PUSH1 0x4 PUSH2 0xA43 JUMP JUMPDEST PUSH2 0x509 JUMP JUMPDEST PUSH2 0x93 PUSH2 0x287 CALLDATASIZE PUSH1 0x4 PUSH2 0x896 JUMP JUMPDEST PUSH2 0x547 JUMP JUMPDEST PUSH2 0x2EA PUSH32 0x2D947EF7E1BCF8FB01214590FC292969AE4D5E7F45D7813E715CC8B7F8F3EB5 DUP4 DUP4 PUSH1 0x40 MLOAD PUSH1 0x20 ADD PUSH2 0x2D5 SWAP3 SWAP2 SWAP1 SWAP2 DUP3 MSTORE PUSH1 0x1 PUSH1 0x1 PUSH1 0xA0 SHL SUB AND PUSH1 0x20 DUP3 ADD MSTORE PUSH1 0x40 ADD SWAP1 JUMP JUMPDEST PUSH1 0x40 MLOAD PUSH1 0x20 DUP2 DUP4 SUB SUB DUP2 MSTORE SWAP1 PUSH1 0x40 MSTORE CALLVALUE PUSH2 0x5DE JUMP JUMPDEST POP POP JUMP JUMPDEST PUSH1 0x0 DUP3 PUSH1 0x40 MLOAD PUSH1 0x20 ADD PUSH2 0x301 SWAP2 SWAP1 PUSH2 0xBBC JUMP JUMPDEST PUSH1 0x40 DUP1 MLOAD DUP1 DUP4 SUB PUSH1 0x1F NOT ADD DUP2 MSTORE SWAP2 DUP2 MSTORE DUP2 MLOAD PUSH1 0x20 SWAP3 DUP4 ADD KECCAK256 PUSH1 0x1 PUSH1 0x1 PUSH1 0xE0 SHL SUB NOT AND PUSH1 0x0 SWAP1 DUP2 MSTORE SWAP2 DUP3 SWAP1 MSTORE SWAP1 KECCAK256 DUP1 SLOAD PUSH1 0x1 PUSH1 0x1 PUSH1 0xA0 SHL SUB NOT AND PUSH1 0x1 PUSH1 0x1 PUSH1 0xA0 SHL SUB SWAP4 SWAP1 SWAP4 AND SWAP3 SWAP1 SWAP3 OR SWAP1 SWAP2 SSTORE POP POP JUMP JUMPDEST PUSH1 0x60 DUP1 PUSH1 0x60 DUP1 PUSH1 0x2 PUSH1 0x0 SWAP1 SLOAD SWAP1 PUSH2 0x100 EXP SWAP1 DIV PUSH1 0x1 PUSH1 0x1 PUSH1 0xA0 SHL SUB AND PUSH1 0x1 PUSH1 0x1 PUSH1 0xA0 SHL SUB AND PUSH4 0x690FF8A1 PUSH1 0x40 MLOAD DUP2 PUSH4 0xFFFFFFFF AND PUSH1 0xE0 SHL DUP2 MSTORE PUSH1 0x4 ADD PUSH1 0x0 PUSH1 0x40 MLOAD DUP1 DUP4 SUB DUP2 DUP7 DUP1 EXTCODESIZE ISZERO DUP1 ISZERO PUSH2 0x3A5 JUMPI PUSH1 0x0 DUP1 REVERT JUMPDEST POP GAS STATICCALL ISZERO DUP1 ISZERO PUSH2 0x3B9 JUMPI RETURNDATASIZE PUSH1 0x0 DUP1 RETURNDATACOPY RETURNDATASIZE PUSH1 0x0 REVERT JUMPDEST POP POP POP POP PUSH1 0x40 MLOAD RETURNDATASIZE PUSH1 0x0 DUP3 RETURNDATACOPY PUSH1 0x1F RETURNDATASIZE SWAP1 DUP2 ADD PUSH1 0x1F NOT AND DUP3 ADD PUSH1 0x40 MSTORE PUSH2 0x3E1 SWAP2 SWAP1 DUP2 ADD SWAP1 PUSH2 0x8F1 JUMP JUMPDEST SWAP4 POP SWAP4 POP SWAP4 POP SWAP4 POP SWAP1 SWAP2 SWAP3 SWAP4 JUMP JUMPDEST PUSH1 0x2 SLOAD PUSH1 0x40 MLOAD PUSH4 0x8D337B81 PUSH1 0xE0 SHL DUP2 MSTORE PUSH1 0x1 PUSH1 0x1 PUSH1 0xA0 SHL SUB DUP4 DUP2 AND PUSH1 0x4 DUP4 ADD MSTORE PUSH1 0x0 SWAP3 AND SWAP1 PUSH4 0x8D337B81 SWAP1 PUSH1 0x24 ADD PUSH1 0x20 PUSH1 0x40 MLOAD DUP1 DUP4 SUB DUP2 DUP7 DUP1 EXTCODESIZE ISZERO DUP1 ISZERO PUSH2 0x435 JUMPI PUSH1 0x0 DUP1 REVERT JUMPDEST POP GAS STATICCALL ISZERO DUP1 ISZERO PUSH2 0x449 JUMPI RETURNDATASIZE PUSH1 0x0 DUP1 RETURNDATACOPY RETURNDATASIZE PUSH1 0x0 REVERT JUMPDEST POP POP POP POP PUSH1 0x40 MLOAD RETURNDATASIZE PUSH1 0x1F NOT PUSH1 0x1F DUP3 ADD AND DUP3 ADD DUP1 PUSH1 0x40 MSTORE POP DUP2 ADD SWAP1 PUSH2 0x46D SWAP2 SWAP1 PUSH2 0x999 JUMP JUMPDEST SWAP3 SWAP2 POP POP JUMP JUMPDEST PUSH1 0x60 PUSH1 0x0 PUSH1 0x2 PUSH1 0x0 SWAP1 SLOAD SWAP1 PUSH2 0x100 EXP SWAP1 DIV PUSH1 0x1 PUSH1 0x1 PUSH1 0xA0 SHL SUB AND PUSH1 0x1 PUSH1 0x1 PUSH1 0xA0 SHL SUB AND PUSH4 0x8E7EA5B2 PUSH1 0x40 MLOAD DUP2 PUSH4 0xFFFFFFFF AND PUSH1 0xE0 SHL DUP2 MSTORE PUSH1 0x4 ADD PUSH1 0x0 PUSH1 0x40 MLOAD DUP1 DUP4 SUB DUP2 DUP7 DUP1 EXTCODESIZE ISZERO DUP1 ISZERO PUSH2 0x4C5 JUMPI PUSH1 0x0 DUP1 REVERT JUMPDEST POP GAS STATICCALL ISZERO DUP1 ISZERO PUSH2 0x4D9 JUMPI RETURNDATASIZE PUSH1 0x0 DUP1 RETURNDATACOPY RETURNDATASIZE PUSH1 0x0 REVERT JUMPDEST POP POP POP POP PUSH1 0x40 MLOAD RETURNDATASIZE PUSH1 0x0 DUP3 RETURNDATACOPY PUSH1 0x1F RETURNDATASIZE SWAP1 DUP2 ADD PUSH1 0x1F NOT AND DUP3 ADD PUSH1 0x40 MSTORE PUSH2 0x501 SWAP2 SWAP1 DUP2 ADD SWAP1 PUSH2 0x9FE JUMP JUMPDEST SWAP2 POP SWAP2 POP SWAP1 SWAP2 JUMP JUMPDEST PUSH2 0x542 PUSH32 0xE74F92526F0E4821225878E86D3C7F6ED75A1108786093265C86A02B373C57CB DUP5 DUP5 DUP5 PUSH1 0x40 MLOAD PUSH1 0x20 ADD PUSH2 0x2D5 SWAP4 SWAP3 SWAP2 SWAP1 PUSH2 0xC52 JUMP JUMPDEST POP POP POP JUMP JUMPDEST PUSH1 0x0 CALLVALUE GT PUSH2 0x59C JUMPI PUSH1 0x40 MLOAD PUSH3 0x461BCD PUSH1 0xE5 SHL DUP2 MSTORE PUSH1 0x20 PUSH1 0x4 DUP3 ADD MSTORE PUSH1 0x1C PUSH1 0x24 DUP3 ADD MSTORE PUSH32 0x56616C7565206D7573742062652067726561746572207468616E203000000000 PUSH1 0x44 DUP3 ADD MSTORE PUSH1 0x64 ADD JUMPDEST PUSH1 0x40 MLOAD DUP1 SWAP2 SUB SWAP1 REVERT JUMPDEST PUSH1 0x40 DUP1 MLOAD PUSH1 0x1 PUSH1 0x1 PUSH1 0xA0 SHL SUB DUP4 AND PUSH1 0x20 DUP3 ADD MSTORE PUSH2 0x5DB SWAP2 PUSH32 0xEAB06849D7BC153EEC39FB39C859939F6E1897FD8B7B2EF9F241BC115F9B57A7 SWAP2 ADD PUSH2 0x2D5 JUMP JUMPDEST POP JUMP JUMPDEST PUSH1 0x1 PUSH1 0x1 PUSH1 0xE0 SHL SUB NOT DUP4 AND PUSH1 0x0 SWAP1 DUP2 MSTORE PUSH1 0x20 DUP2 SWAP1 MSTORE PUSH1 0x40 SWAP1 KECCAK256 SLOAD PUSH1 0x1 PUSH1 0x1 PUSH1 0xA0 SHL SUB AND DUP1 PUSH2 0x64E JUMPI PUSH1 0x40 MLOAD PUSH3 0x461BCD PUSH1 0xE5 SHL DUP2 MSTORE PUSH1 0x20 PUSH1 0x4 DUP3 ADD MSTORE PUSH1 0x18 PUSH1 0x24 DUP3 ADD MSTORE PUSH32 0x496D706C656D656E746174696F6E206E6F7420666F756E640000000000000000 PUSH1 0x44 DUP3 ADD MSTORE PUSH1 0x64 ADD PUSH2 0x593 JUMP JUMPDEST PUSH1 0x0 DUP2 PUSH1 0x1 PUSH1 0x1 PUSH1 0xA0 SHL SUB AND DUP4 DUP7 DUP7 PUSH1 0x40 MLOAD PUSH1 0x20 ADD PUSH2 0x66E SWAP3 SWAP2 SWAP1 PUSH2 0xB8B JUMP JUMPDEST PUSH1 0x40 DUP1 MLOAD PUSH1 0x1F NOT DUP2 DUP5 SUB ADD DUP2 MSTORE SWAP1 DUP3 SWAP1 MSTORE PUSH2 0x688 SWAP2 PUSH2 0xBBC JUMP JUMPDEST PUSH1 0x0 PUSH1 0x40 MLOAD DUP1 DUP4 SUB DUP2 DUP6 DUP8 GAS CALL SWAP3 POP POP POP RETURNDATASIZE DUP1 PUSH1 0x0 DUP2 EQ PUSH2 0x6C5 JUMPI PUSH1 0x40 MLOAD SWAP2 POP PUSH1 0x1F NOT PUSH1 0x3F RETURNDATASIZE ADD AND DUP3 ADD PUSH1 0x40 MSTORE RETURNDATASIZE DUP3 MSTORE RETURNDATASIZE PUSH1 0x0 PUSH1 0x20 DUP5 ADD RETURNDATACOPY PUSH2 0x6CA JUMP JUMPDEST PUSH1 0x60 SWAP2 POP JUMPDEST POP POP SWAP1 POP DUP1 PUSH2 0x709 JUMPI PUSH1 0x40 MLOAD PUSH3 0x461BCD PUSH1 0xE5 SHL DUP2 MSTORE PUSH1 0x20 PUSH1 0x4 DUP3 ADD MSTORE PUSH1 0xB PUSH1 0x24 DUP3 ADD MSTORE PUSH11 0x10D85B1B0819985A5B1959 PUSH1 0xAA SHL PUSH1 0x44 DUP3 ADD MSTORE PUSH1 0x64 ADD PUSH2 0x593 JUMP JUMPDEST POP POP POP POP POP JUMP JUMPDEST PUSH1 0x0 DUP3 PUSH1 0x1F DUP4 ADD SLT PUSH2 0x720 JUMPI DUP1 DUP2 REVERT JUMPDEST DUP2 MLOAD PUSH1 0x20 PUSH2 0x735 PUSH2 0x730 DUP4 PUSH2 0xCB8 JUMP JUMPDEST PUSH2 0xC87 JUMP JUMPDEST DUP1 DUP4 DUP3 MSTORE DUP3 DUP3 ADD SWAP2 POP DUP3 DUP7 ADD DUP8 DUP5 DUP7 PUSH1 0x5 SHL DUP10 ADD ADD GT ISZERO PUSH2 0x754 JUMPI DUP6 DUP7 REVERT JUMPDEST DUP6 JUMPDEST DUP6 DUP2 LT ISZERO PUSH2 0x795 JUMPI DUP2 MLOAD PUSH8 0xFFFFFFFFFFFFFFFF DUP2 GT ISZERO PUSH2 0x774 JUMPI DUP8 DUP9 REVERT JUMPDEST PUSH2 0x782 DUP11 DUP8 DUP4 DUP13 ADD ADD PUSH2 0x84B JUMP JUMPDEST DUP6 MSTORE POP SWAP3 DUP5 ADD SWAP3 SWAP1 DUP5 ADD SWAP1 PUSH1 0x1 ADD PUSH2 0x756 JUMP JUMPDEST POP SWAP1 SWAP8 SWAP7 POP POP POP POP POP POP POP JUMP JUMPDEST PUSH1 0x0 DUP3 PUSH1 0x1F DUP4 ADD SLT PUSH2 0x7B2 JUMPI DUP1 DUP2 REVERT JUMPDEST DUP2 MLOAD PUSH1 0x20 PUSH2 0x7C2 PUSH2 0x730 DUP4 PUSH2 0xCB8 JUMP JUMPDEST DUP1 DUP4 DUP3 MSTORE DUP3 DUP3 ADD SWAP2 POP DUP3 DUP7 ADD DUP8 DUP5 DUP7 PUSH1 0x5 SHL DUP10 ADD ADD GT ISZERO PUSH2 0x7E1 JUMPI DUP6 DUP7 REVERT JUMPDEST DUP6 JUMPDEST DUP6 DUP2 LT ISZERO PUSH2 0x795 JUMPI DUP2 MLOAD DUP5 MSTORE SWAP3 DUP5 ADD SWAP3 SWAP1 DUP5 ADD SWAP1 PUSH1 0x1 ADD PUSH2 0x7E3 JUMP JUMPDEST PUSH1 0x0 DUP3 PUSH1 0x1F DUP4 ADD SLT PUSH2 0x80F JUMPI DUP1 DUP2 REVERT JUMPDEST DUP2 CALLDATALOAD PUSH2 0x81D PUSH2 0x730 DUP3 PUSH2 0xCDC JUMP JUMPDEST DUP2 DUP2 MSTORE DUP5 PUSH1 0x20 DUP4 DUP7 ADD ADD GT ISZERO PUSH2 0x831 JUMPI DUP3 DUP4 REVERT JUMPDEST DUP2 PUSH1 0x20 DUP6 ADD PUSH1 0x20 DUP4 ADD CALLDATACOPY SWAP1 DUP2 ADD PUSH1 0x20 ADD SWAP2 SWAP1 SWAP2 MSTORE SWAP3 SWAP2 POP POP JUMP JUMPDEST PUSH1 0x0 DUP3 PUSH1 0x1F DUP4 ADD SLT PUSH2 0x85B JUMPI DUP1 DUP2 REVERT JUMPDEST DUP2 MLOAD PUSH2 0x869 PUSH2 0x730 DUP3 PUSH2 0xCDC JUMP JUMPDEST DUP2 DUP2 MSTORE DUP5 PUSH1 0x20 DUP4 DUP7 ADD ADD GT ISZERO PUSH2 0x87D JUMPI DUP3 DUP4 REVERT JUMPDEST PUSH2 0x88E DUP3 PUSH1 0x20 DUP4 ADD PUSH1 0x20 DUP8 ADD PUSH2 0xD04 JUMP JUMPDEST SWAP5 SWAP4 POP POP POP POP JUMP JUMPDEST PUSH1 0x0 PUSH1 0x20 DUP3 DUP5 SUB SLT ISZERO PUSH2 0x8A7 JUMPI DUP1 DUP2 REVERT JUMPDEST DUP2 CALLDATALOAD PUSH2 0x8B2 DUP2 PUSH2 0xD4A JUMP JUMPDEST SWAP4 SWAP3 POP POP POP JUMP JUMPDEST PUSH1 0x0 DUP1 PUSH1 0x40 DUP4 DUP6 SUB SLT ISZERO PUSH2 0x8CB JUMPI DUP1 DUP2 REVERT JUMPDEST DUP3 CALLDATALOAD PUSH2 0x8D6 DUP2 PUSH2 0xD4A JUMP JUMPDEST SWAP2 POP PUSH1 0x20 DUP4 ADD CALLDATALOAD PUSH2 0x8E6 DUP2 PUSH2 0xD4A JUMP JUMPDEST DUP1 SWAP2 POP POP SWAP3 POP SWAP3 SWAP1 POP JUMP JUMPDEST PUSH1 0x0 DUP1 PUSH1 0x0 DUP1 PUSH1 0x80 DUP6 DUP8 SUB SLT ISZERO PUSH2 0x906 JUMPI DUP2 DUP3 REVERT JUMPDEST DUP5 MLOAD PUSH8 0xFFFFFFFFFFFFFFFF DUP1 DUP3 GT ISZERO PUSH2 0x91D JUMPI DUP4 DUP5 REVERT JUMPDEST PUSH2 0x929 DUP9 DUP4 DUP10 ADD PUSH2 0x710 JUMP JUMPDEST SWAP6 POP PUSH1 0x20 DUP8 ADD MLOAD SWAP2 POP DUP1 DUP3 GT ISZERO PUSH2 0x93E JUMPI DUP4 DUP5 REVERT JUMPDEST PUSH2 0x94A DUP9 DUP4 DUP10 ADD PUSH2 0x7A2 JUMP JUMPDEST SWAP5 POP PUSH1 0x40 DUP8 ADD MLOAD SWAP2 POP DUP1 DUP3 GT ISZERO PUSH2 0x95F JUMPI DUP4 DUP5 REVERT JUMPDEST PUSH2 0x96B DUP9 DUP4 DUP10 ADD PUSH2 0x710 JUMP JUMPDEST SWAP4 POP PUSH1 0x60 DUP8 ADD MLOAD SWAP2 POP DUP1 DUP3 GT ISZERO PUSH2 0x980 JUMPI DUP3 DUP4 REVERT JUMPDEST POP PUSH2 0x98D DUP8 DUP3 DUP9 ADD PUSH2 0x7A2 JUMP JUMPDEST SWAP2 POP POP SWAP3 SWAP6 SWAP2 SWAP5 POP SWAP3 POP JUMP JUMPDEST PUSH1 0x0 PUSH1 0x20 DUP3 DUP5 SUB SLT ISZERO PUSH2 0x9AA JUMPI DUP1 DUP2 REVERT JUMPDEST DUP2 MLOAD DUP1 ISZERO ISZERO DUP2 EQ PUSH2 0x8B2 JUMPI DUP2 DUP3 REVERT JUMPDEST PUSH1 0x0 DUP1 PUSH1 0x40 DUP4 DUP6 SUB SLT ISZERO PUSH2 0x9CB JUMPI DUP2 DUP3 REVERT JUMPDEST DUP3 CALLDATALOAD PUSH8 0xFFFFFFFFFFFFFFFF DUP2 GT ISZERO PUSH2 0x9E1 JUMPI DUP3 DUP4 REVERT JUMPDEST PUSH2 0x9ED DUP6 DUP3 DUP7 ADD PUSH2 0x7FF JUMP JUMPDEST SWAP3 POP POP PUSH1 0x20 DUP4 ADD CALLDATALOAD PUSH2 0x8E6 DUP2 PUSH2 0xD4A JUMP JUMPDEST PUSH1 0x0 DUP1 PUSH1 0x40 DUP4 DUP6 SUB SLT ISZERO PUSH2 0xA10 JUMPI DUP2 DUP3 REVERT JUMPDEST DUP3 MLOAD PUSH8 0xFFFFFFFFFFFFFFFF DUP2 GT ISZERO PUSH2 0xA26 JUMPI DUP3 DUP4 REVERT JUMPDEST PUSH2 0xA32 DUP6 DUP3 DUP7 ADD PUSH2 0x84B JUMP JUMPDEST SWAP3 POP POP PUSH1 0x20 DUP4 ADD MLOAD SWAP1 POP SWAP3 POP SWAP3 SWAP1 POP JUMP JUMPDEST PUSH1 0x0 DUP1 PUSH1 0x0 PUSH1 0x60 DUP5 DUP7 SUB SLT ISZERO PUSH2 0xA57 JUMPI DUP3 DUP4 REVERT JUMPDEST DUP4 CALLDATALOAD PUSH8 0xFFFFFFFFFFFFFFFF DUP1 DUP3 GT ISZERO PUSH2 0xA6E JUMPI DUP5 DUP6 REVERT JUMPDEST PUSH2 0xA7A DUP8 DUP4 DUP9 ADD PUSH2 0x7FF JUMP JUMPDEST SWAP5 POP PUSH1 0x20 DUP7 ADD CALLDATALOAD SWAP4 POP PUSH1 0x40 DUP7 ADD CALLDATALOAD SWAP2 POP DUP1 DUP3 GT ISZERO PUSH2 0xA96 JUMPI DUP3 DUP4 REVERT JUMPDEST POP PUSH2 0xAA3 DUP7 DUP3 DUP8 ADD PUSH2 0x7FF JUMP JUMPDEST SWAP2 POP POP SWAP3 POP SWAP3 POP SWAP3 JUMP JUMPDEST PUSH1 0x0 DUP1 PUSH1 0x40 DUP4 DUP6 SUB SLT ISZERO PUSH2 0xABF JUMPI DUP2 DUP3 REVERT JUMPDEST DUP3 CALLDATALOAD SWAP2 POP PUSH1 0x20 DUP4 ADD CALLDATALOAD PUSH2 0x8E6 DUP2 PUSH2 0xD4A JUMP JUMPDEST PUSH1 0x0 DUP2 MLOAD DUP1 DUP5 MSTORE PUSH1 0x20 DUP1 DUP6 ADD DUP1 DUP2 SWAP7 POP DUP4 PUSH1 0x5 SHL DUP2 ADD SWAP2 POP DUP3 DUP7 ADD DUP6 JUMPDEST DUP6 DUP2 LT ISZERO PUSH2 0xB18 JUMPI DUP3 DUP5 SUB DUP10 MSTORE PUSH2 0xB06 DUP5 DUP4 MLOAD PUSH2 0xB5F JUMP JUMPDEST SWAP9 DUP6 ADD SWAP9 SWAP4 POP SWAP1 DUP5 ADD SWAP1 PUSH1 0x1 ADD PUSH2 0xAEE JUMP JUMPDEST POP SWAP2 SWAP8 SWAP7 POP POP POP POP POP POP POP JUMP JUMPDEST PUSH1 0x0 DUP2 MLOAD DUP1 DUP5 MSTORE PUSH1 0x20 DUP1 DUP6 ADD SWAP5 POP DUP1 DUP5 ADD DUP4 JUMPDEST DUP4 DUP2 LT ISZERO PUSH2 0xB54 JUMPI DUP2 MLOAD DUP8 MSTORE SWAP6 DUP3 ADD SWAP6 SWAP1 DUP3 ADD SWAP1 PUSH1 0x1 ADD PUSH2 0xB38 JUMP JUMPDEST POP SWAP5 SWAP6 SWAP5 POP POP POP POP POP JUMP JUMPDEST PUSH1 0x0 DUP2 MLOAD DUP1 DUP5 MSTORE PUSH2 0xB77 DUP2 PUSH1 0x20 DUP7 ADD PUSH1 0x20 DUP7 ADD PUSH2 0xD04 JUMP JUMPDEST PUSH1 0x1F ADD PUSH1 0x1F NOT AND SWAP3 SWAP1 SWAP3 ADD PUSH1 0x20 ADD SWAP3 SWAP2 POP POP JUMP JUMPDEST PUSH1 0x1 PUSH1 0x1 PUSH1 0xE0 SHL SUB NOT DUP4 AND DUP2 MSTORE DUP2 MLOAD PUSH1 0x0 SWAP1 PUSH2 0xBAE DUP2 PUSH1 0x4 DUP6 ADD PUSH1 0x20 DUP8 ADD PUSH2 0xD04 JUMP JUMPDEST SWAP2 SWAP1 SWAP2 ADD PUSH1 0x4 ADD SWAP4 SWAP3 POP POP POP JUMP JUMPDEST PUSH1 0x0 DUP3 MLOAD PUSH2 0xBCE DUP2 DUP5 PUSH1 0x20 DUP8 ADD PUSH2 0xD04 JUMP JUMPDEST SWAP2 SWAP1 SWAP2 ADD SWAP3 SWAP2 POP POP JUMP JUMPDEST PUSH1 0x80 DUP2 MSTORE PUSH1 0x0 PUSH2 0xBEB PUSH1 0x80 DUP4 ADD DUP8 PUSH2 0xAD1 JUMP JUMPDEST DUP3 DUP2 SUB PUSH1 0x20 DUP5 ADD MSTORE PUSH2 0xBFD DUP2 DUP8 PUSH2 0xB25 JUMP JUMPDEST SWAP1 POP DUP3 DUP2 SUB PUSH1 0x40 DUP5 ADD MSTORE PUSH2 0xC11 DUP2 DUP7 PUSH2 0xAD1 JUMP JUMPDEST SWAP1 POP DUP3 DUP2 SUB PUSH1 0x60 DUP5 ADD MSTORE PUSH2 0xC25 DUP2 DUP6 PUSH2 0xB25 JUMP JUMPDEST SWAP8 SWAP7 POP POP POP POP POP POP POP JUMP JUMPDEST PUSH1 0x40 DUP2 MSTORE PUSH1 0x0 PUSH2 0xC43 PUSH1 0x40 DUP4 ADD DUP6 PUSH2 0xB5F JUMP JUMPDEST SWAP1 POP DUP3 PUSH1 0x20 DUP4 ADD MSTORE SWAP4 SWAP3 POP POP POP JUMP JUMPDEST PUSH1 0x60 DUP2 MSTORE PUSH1 0x0 PUSH2 0xC65 PUSH1 0x60 DUP4 ADD DUP7 PUSH2 0xB5F JUMP JUMPDEST DUP5 PUSH1 0x20 DUP5 ADD MSTORE DUP3 DUP2 SUB PUSH1 0x40 DUP5 ADD MSTORE PUSH2 0xC7D DUP2 DUP6 PUSH2 0xB5F JUMP JUMPDEST SWAP7 SWAP6 POP POP POP POP POP POP JUMP JUMPDEST PUSH1 0x40 MLOAD PUSH1 0x1F DUP3 ADD PUSH1 0x1F NOT AND DUP2 ADD PUSH8 0xFFFFFFFFFFFFFFFF DUP2 GT DUP3 DUP3 LT OR ISZERO PUSH2 0xCB0 JUMPI PUSH2 0xCB0 PUSH2 0xD34 JUMP JUMPDEST PUSH1 0x40 MSTORE SWAP2 SWAP1 POP JUMP JUMPDEST PUSH1 0x0 PUSH8 0xFFFFFFFFFFFFFFFF DUP3 GT ISZERO PUSH2 0xCD2 JUMPI PUSH2 0xCD2 PUSH2 0xD34 JUMP JUMPDEST POP PUSH1 0x5 SHL PUSH1 0x20 ADD SWAP1 JUMP JUMPDEST PUSH1 0x0 PUSH8 0xFFFFFFFFFFFFFFFF DUP3 GT ISZERO PUSH2 0xCF6 JUMPI PUSH2 0xCF6 PUSH2 0xD34 JUMP JUMPDEST POP PUSH1 0x1F ADD PUSH1 0x1F NOT AND PUSH1 0x20 ADD SWAP1 JUMP JUMPDEST PUSH1 0x0 JUMPDEST DUP4 DUP2 LT ISZERO PUSH2 0xD1F JUMPI DUP2 DUP2 ADD MLOAD DUP4 DUP3 ADD MSTORE PUSH1 0x20 ADD PUSH2 0xD07 JUMP JUMPDEST DUP4 DUP2 GT ISZERO PUSH2 0xD2E JUMPI PUSH1 0x0 DUP5 DUP5 ADD MSTORE JUMPDEST POP POP POP POP JUMP JUMPDEST PUSH4 0x4E487B71 PUSH1 0xE0 SHL PUSH1 0x0 MSTORE PUSH1 0x41 PUSH1 0x4 MSTORE PUSH1 0x24 PUSH1 0x0 REVERT JUMPDEST PUSH1 0x1 PUSH1 0x1 PUSH1 0xA0 SHL SUB DUP2 AND DUP2 EQ PUSH2 0x5DB JUMPI PUSH1 0x0 DUP1 REVERT INVALID LOG2 PUSH5 0x6970667358 0x22 SLT KECCAK256 0xC9 EXTCODEHASH BLOCKHASH DUP12 EXP LOG4 0xDC STOP 0xC6 CHAINID 0xD3 0xC6 DUP4 PUSH4 0xB63093FD 0xD7 SSTORE ADDRESS GT DUP11 0x49 DUP2 0x2B 0x4E 0xAE PUSH31 0x19EE3E64736F6C634300080400330000000000000000000000000000000000 "},"methodIdentifiers":{"addCandidates(string,uint256,string)":"dac8fa2a","callTransfer(address)":"eec990f2","getListCandidates()":"690ff8a1","getVote(address)":"8d337b81","getWinner()":"8e7ea5b2","starting(address,address)":"4d6f9dfb","updateProxy(string,address)":"4b9ab850","vote(uint256,address)":"02d947ef"}},"storageLayout":{"storage":[{"astId":8,"contract":"contracts/Proxy.sol:Proxy","label":"implementations","offset":0,"slot":"0","type":"t_mapping(t_bytes4,t_address)"},{"astId":11,"contract":"contracts/Proxy.sol:Proxy","label":"transferContract","offset":0,"slot":"1","type":"t_contract(Transfer)338"},{"astId":14,"contract":"contracts/Proxy.sol:Proxy","label":"voteContract","offset":0,"slot":"2","type":"t_contract(Vote)686"}],"types":{"t_address":{"encoding":"inplace","label":"address","numberOfBytes":"20"},"t_bytes4":{"encoding":"inplace","label":"bytes4","numberOfBytes":"4"},"t_contract(Transfer)338":{"encoding":"inplace","label":"contract Transfer","numberOfBytes":"20"},"t_contract(Vote)686":{"encoding":"inplace","label":"contract Vote","numberOfBytes":"20"},"t_mapping(t_bytes4,t_address)":{"encoding":"mapping","key":"t_bytes4","label":"mapping(bytes4 => address)","numberOfBytes":"32","value":"t_address"}}}}}}