{
  "_format": "hh-sol-artifact-1",
  "contractName": "Transfer2",
  "sourceName": "contracts/Transfer2.sol",
  "abi": [
    {
      "anonymous": false,
      "inputs": [
        {
          "indexed": true,
          "internalType": "address",
          "name": "from",
          "type": "address"
        },
        {
          "indexed": false,
          "internalType": "address",
          "name": "to",
          "type": "address"
        },
        {
          "indexed": false,
          "internalType": "uint256",
          "name": "amount",
          "type": "uint256"
        }
      ],
      "name": "transaction",
      "type": "event"
    },
    {
      "inputs": [
        {
          "internalType": "address payable",
          "name": "_to",
          "type": "address"
        }
      ],
      "name": "_transfer",
      "outputs": [],
      "stateMutability": "payable",
      "type": "function"
    },
    {
      "inputs": [
        {
          "internalType": "address",
          "name": "from",
          "type": "address"
        },
        {
          "internalType": "address",
          "name": "to",
          "type": "address"
        },
        {
          "internalType": "uint256",
          "name": "amount",
          "type": "uint256"
        }
      ],
      "name": "saveTx",
      "outputs": [],
      "stateMutability": "nonpayable",
      "type": "function"
    }
  ],
  "bytecode": "0x608060405234801561001057600080fd5b5061031f806100206000396000f3fe6080604052600436106100295760003560e01c8063eab068491461002e578063f688b4c014610043575b600080fd5b61004161003c366004610216565b610063565b005b34801561004f57600080fd5b5061004161005e366004610239565b610155565b6100886040518060400160405280600381526020016236b9b360e91b815250346101a0565b66038d7ea4c6800034116100d95760405162461bcd60e51b815260206004820152601460248201527356616c75652073686f756c64206265206d6f726560601b604482015260640160405180910390fd5b6040516001600160a01b038216903480156108fc02916000818181858888f1935050505015801561010e573d6000803e3d6000fd5b50604080516001600160a01b038316815234602082015233917fb5a151ba89290d7f3b668f3d1b864e555f3ce075ee899efe5df7c5abb6881fb7910160405180910390a250565b604080516001600160a01b038481168252602082018490528516917fb5a151ba89290d7f3b668f3d1b864e555f3ce075ee899efe5df7c5abb6881fb7910160405180910390a2505050565b6101e582826040516024016101b6929190610279565b60408051601f198184030181529190526020810180516001600160e01b0316632d839cb360e21b1790526101e9565b5050565b6101f2816101f5565b50565b60006a636f6e736f6c652e6c6f679050600080835160208501845afa505050565b600060208284031215610227578081fd5b8135610232816102d4565b9392505050565b60008060006060848603121561024d578182fd5b8335610258816102d4565b92506020840135610268816102d4565b929592945050506040919091013590565b6040815260008351806040840152815b818110156102a65760208187018101516060868401015201610289565b818111156102b75782606083860101525b50602083019390935250601f91909101601f191601606001919050565b6001600160a01b03811681146101f257600080fdfea2646970667358221220ecee5bef21c258f6bf4b92a4d49e268295a2507f0d3d083ec7ee0531eef6069164736f6c63430008040033",
  "linkReferences": {},
  "deployedLinkReferences": {}
}