{
  "_format": "hh-sol-artifact-1",
  "contractName": "Transfer",
  "sourceName": "contracts/Transfer.sol",
  "abi": [
    {
      "anonymous": false,
      "inputs": [
        {
          "indexed": true,
          "internalType": "address",
          "name": "from",
          "type": "address"
        },
        {
          "indexed": false,
          "internalType": "address",
          "name": "to",
          "type": "address"
        },
        {
          "indexed": false,
          "internalType": "uint256",
          "name": "amount",
          "type": "uint256"
        }
      ],
      "name": "transaction",
      "type": "event"
    },
    {
      "inputs": [
        {
          "internalType": "address payable",
          "name": "_to",
          "type": "address"
        }
      ],
      "name": "_transfer",
      "outputs": [],
      "stateMutability": "payable",
      "type": "function"
    }
  ],
  "bytecode": "0x608060405234801561001057600080fd5b5061010f806100206000396000f3fe608060405260043610601c5760003560e01c8063eab06849146021575b600080fd5b6030602c36600460ad565b6032565b005b6040516001600160a01b038216903480156108fc02916000818181858888f193505050501580156066573d6000803e3d6000fd5b50604080516001600160a01b038316815234602082015233917fb5a151ba89290d7f3b668f3d1b864e555f3ce075ee899efe5df7c5abb6881fb7910160405180910390a250565b60006020828403121560bd578081fd5b81356001600160a01b038116811460d2578182fd5b939250505056fea264697066735822122026884adce23dc991f94d1ff4588331bb3cec0386bd61362486a56bde8304e8cb64736f6c63430008040033",
  "linkReferences": {},
  "deployedLinkReferences": {}
}