{
  "_format": "hh-sol-artifact-1",
  "contractName": "Vote",
  "sourceName": "contracts/Vote.sol",
  "abi": [
    {
      "inputs": [],
      "stateMutability": "nonpayable",
      "type": "constructor"
    },
    {
      "inputs": [
        {
          "internalType": "string",
          "name": "_name",
          "type": "string"
        },
        {
          "internalType": "uint256",
          "name": "_candidateId",
          "type": "uint256"
        },
        {
          "internalType": "string",
          "name": "_party",
          "type": "string"
        }
      ],
      "name": "addCandidate",
      "outputs": [],
      "stateMutability": "nonpayable",
      "type": "function"
    },
    {
      "inputs": [],
      "name": "getListCandidates",
      "outputs": [
        {
          "internalType": "string[]",
          "name": "",
          "type": "string[]"
        },
        {
          "internalType": "uint256[]",
          "name": "",
          "type": "uint256[]"
        },
        {
          "internalType": "string[]",
          "name": "",
          "type": "string[]"
        },
        {
          "internalType": "uint256[]",
          "name": "",
          "type": "uint256[]"
        }
      ],
      "stateMutability": "view",
      "type": "function"
    },
    {
      "inputs": [
        {
          "internalType": "address",
          "name": "_voter",
          "type": "address"
        }
      ],
      "name": "getVote",
      "outputs": [
        {
          "internalType": "bool",
          "name": "",
          "type": "bool"
        }
      ],
      "stateMutability": "view",
      "type": "function"
    },
    {
      "inputs": [],
      "name": "getWinner",
      "outputs": [
        {
          "internalType": "string",
          "name": "winnerName",
          "type": "string"
        },
        {
          "internalType": "uint256",
          "name": "winnerVoteCount",
          "type": "uint256"
        }
      ],
      "stateMutability": "view",
      "type": "function"
    },
    {
      "inputs": [],
      "name": "owner",
      "outputs": [
        {
          "internalType": "address",
          "name": "",
          "type": "address"
        }
      ],
      "stateMutability": "view",
      "type": "function"
    },
    {
      "inputs": [
        {
          "internalType": "uint256",
          "name": "_candidateId",
          "type": "uint256"
        },
        {
          "internalType": "address",
          "name": "_voter",
          "type": "address"
        }
      ],
      "name": "vote",
      "outputs": [],
      "stateMutability": "nonpayable",
      "type": "function"
    }
  ],
  "bytecode": "0x608060405234801561001057600080fd5b50600280546001600160a01b03191633179055610f3f806100326000396000f3fe608060405234801561001057600080fd5b50600436106100625760003560e01c806302d947ef14610067578063690ff8a11461007c5780638d337b811461009d5780638da5cb5b146100d95780638e7ea5b214610104578063e74f92521461011a575b600080fd5b61007a610075366004610c4b565b61012d565b005b6100846102af565b6040516100949493929190610de7565b60405180910390f35b6100c96100ab366004610bc0565b6001600160a01b031660009081526001602052604090205460ff1690565b6040519015158152602001610094565b6002546100ec906001600160a01b031681565b6040516001600160a01b039091168152602001610094565b61010c6106d9565b604051610094929190610e3f565b61007a610128366004610be1565b61086c565b6001600160a01b03811660009081526001602052604090205460ff161561019b5760405162461bcd60e51b815260206004820152601760248201527f596f75206861766520616c726561647920766f7465642e00000000000000000060448201526064015b60405180910390fd5b6000805b6000548110156102425783600082815481106101cb57634e487b7160e01b600052603260045260246000fd5b9060005260206000209060040201600101541415610230576000818154811061020457634e487b7160e01b600052603260045260246000fd5b60009182526020822060036004909202010180549161022283610ecc565b919050555060019150610242565b8061023a81610ecc565b91505061019f565b50806102865760405162461bcd60e51b815260206004820152601360248201527210d85b991a59185d19481b9bdd08199bdd5b99606a1b6044820152606401610192565b506001600160a01b03166000908152600160208190526040909120805460ff1916909117905550565b60008054606091829182918291908167ffffffffffffffff8111156102e457634e487b7160e01b600052604160045260246000fd5b60405190808252806020026020018201604052801561031757816020015b60608152602001906001900390816103025790505b50905060008267ffffffffffffffff81111561034357634e487b7160e01b600052604160045260246000fd5b60405190808252806020026020018201604052801561036c578160200160208202803683370190505b50905060008367ffffffffffffffff81111561039857634e487b7160e01b600052604160045260246000fd5b6040519080825280602002602001820160405280156103cb57816020015b60608152602001906001900390816103b65790505b50905060008467ffffffffffffffff8111156103f757634e487b7160e01b600052604160045260246000fd5b604051908082528060200260200182016040528015610420578160200160208202803683370190505b50905060005b858110156106c9576000818154811061044f57634e487b7160e01b600052603260045260246000fd5b9060005260206000209060040201600001805461046b90610e91565b80601f016020809104026020016040519081016040528092919081815260200182805461049790610e91565b80156104e45780601f106104b9576101008083540402835291602001916104e4565b820191906000526020600020905b8154815290600101906020018083116104c757829003601f168201915b505050505085828151811061050957634e487b7160e01b600052603260045260246000fd5b60200260200101819052506000818154811061053557634e487b7160e01b600052603260045260246000fd5b90600052602060002090600402016001015484828151811061056757634e487b7160e01b600052603260045260246000fd5b6020026020010181815250506000818154811061059457634e487b7160e01b600052603260045260246000fd5b906000526020600020906004020160020180546105b090610e91565b80601f01602080910402602001604051908101604052809291908181526020018280546105dc90610e91565b80156106295780601f106105fe57610100808354040283529160200191610629565b820191906000526020600020905b81548152906001019060200180831161060c57829003601f168201915b505050505083828151811061064e57634e487b7160e01b600052603260045260246000fd5b60200260200101819052506000818154811061067a57634e487b7160e01b600052603260045260246000fd5b9060005260206000209060040201600301548282815181106106ac57634e487b7160e01b600052603260045260246000fd5b6020908102919091010152806106c181610ecc565b915050610426565b5092989197509550909350915050565b606060008080805b60005481101561077057826000828154811061070d57634e487b7160e01b600052603260045260246000fd5b906000526020600020906004020160030154111561075e576000818154811061074657634e487b7160e01b600052603260045260246000fd5b90600052602060002090600402016003015492508091505b8061076881610ecc565b9150506106e1565b506000818154811061079257634e487b7160e01b600052603260045260246000fd5b9060005260206000209060040201600001600082815481106107c457634e487b7160e01b600052603260045260246000fd5b9060005260206000209060040201600301548180546107e290610e91565b80601f016020809104026020016040519081016040528092919081815260200182805461080e90610e91565b801561085b5780601f106108305761010080835404028352916020019161085b565b820191906000526020600020905b81548152906001019060200180831161083e57829003601f168201915b505050505091509350935050509091565b60005b6000548110156109e457826000828154811061089b57634e487b7160e01b600052603260045260246000fd5b90600052602060002090600402016001015414156108fb5760405162461bcd60e51b815260206004820152601b60248201527f43616e64696461746520494420616c72656164792065786973747300000000006044820152606401610192565b8160405160200161090c9190610d30565b604051602081830303815290604052805190602001206000828154811061094357634e487b7160e01b600052603260045260246000fd5b90600052602060002090600402016002016040516020016109649190610d4c565b6040516020818303038152906040528051906020012014156109d25760405162461bcd60e51b815260206004820152602160248201527f412070617274792063616e2068617665206f6e6c7920312063616e64696461746044820152606560f81b6064820152608401610192565b806109dc81610ecc565b91505061086f565b50604080516080810182528481526020808201859052918101839052600060608201819052805460018101825590805281518051929360049092027f290decd9548b62a8d60345a988386fc84ba6bc95484008f6362f93160ef3e5630192610a4f9284920190610a84565b50602082810151600183015560408301518051610a729260028501920190610a84565b50606082015181600301555050505050565b828054610a9090610e91565b90600052602060002090601f016020900481019282610ab25760008555610af8565b82601f10610acb57805160ff1916838001178555610af8565b82800160010185558215610af8579182015b82811115610af8578251825591602001919060010190610add565b50610b04929150610b08565b5090565b5b80821115610b045760008155600101610b09565b80356001600160a01b0381168114610b3457600080fd5b919050565b600082601f830112610b49578081fd5b813567ffffffffffffffff80821115610b6457610b64610ef3565b604051601f8301601f19908116603f01168101908282118183101715610b8c57610b8c610ef3565b81604052838152866020858801011115610ba4578485fd5b8360208701602083013792830160200193909352509392505050565b600060208284031215610bd1578081fd5b610bda82610b1d565b9392505050565b600080600060608486031215610bf5578182fd5b833567ffffffffffffffff80821115610c0c578384fd5b610c1887838801610b39565b9450602086013593506040860135915080821115610c34578283fd5b50610c4186828701610b39565b9150509250925092565b60008060408385031215610c5d578182fd5b82359150610c6d60208401610b1d565b90509250929050565b600081518084526020808501808196508360051b81019150828601855b85811015610cbd578284038952610cab848351610d04565b98850198935090840190600101610c93565b5091979650505050505050565b6000815180845260208085019450808401835b83811015610cf957815187529582019590820190600101610cdd565b509495945050505050565b60008151808452610d1c816020860160208601610e61565b601f01601f19169290920160200192915050565b60008251610d42818460208701610e61565b9190910192915050565b600080835482600182811c915080831680610d6857607f831692505b6020808410821415610d8857634e487b7160e01b87526022600452602487fd5b818015610d9c5760018114610dad57610dd9565b60ff19861689528489019650610dd9565b60008a815260209020885b86811015610dd15781548b820152908501908301610db8565b505084890196505b509498975050505050505050565b608081526000610dfa6080830187610c76565b8281036020840152610e0c8187610cca565b90508281036040840152610e208186610c76565b90508281036060840152610e348185610cca565b979650505050505050565b604081526000610e526040830185610d04565b90508260208301529392505050565b60005b83811015610e7c578181015183820152602001610e64565b83811115610e8b576000848401525b50505050565b600181811c90821680610ea557607f821691505b60208210811415610ec657634e487b7160e01b600052602260045260246000fd5b50919050565b6000600019821415610eec57634e487b7160e01b81526011600452602481fd5b5060010190565b634e487b7160e01b600052604160045260246000fdfea2646970667358221220b8339f8f9b10bc410b5c201e599fb846c0d783374d69a9a6ac92b50f6ebe637a64736f6c63430008040033",
  "linkReferences": {},
  "deployedLinkReferences": {}
}